{
  "abi": [
    {
      "inputs": [
        {
          "internalType": "uint256",
          "name": "totalRewardUnclaimed",
          "type": "uint256"
        },
        {
          "internalType": "uint160",
          "name": "totalSecondsClaimedX128",
          "type": "uint160"
        },
        {
          "internalType": "uint256",
          "name": "startTime",
          "type": "uint256"
        },
        {
          "internalType": "uint256",
          "name": "endTime",
          "type": "uint256"
        },
        {
          "internalType": "uint128",
          "name": "liquidity",
          "type": "uint128"
        },
        {
          "internalType": "uint160",
          "name": "secondsPerLiquidityInsideInitialX128",
          "type": "uint160"
        },
        {
          "internalType": "uint160",
          "name": "secondsPerLiquidityInsideX128",
          "type": "uint160"
        },
        {
          "internalType": "uint256",
          "name": "currentTime",
          "type": "uint256"
        }
      ],
      "name": "computeRewardAmount",
      "outputs": [
        {
          "internalType": "uint256",
          "name": "reward",
          "type": "uint256"
        },
        {
          "internalType": "uint160",
          "name": "secondsInsideX128",
          "type": "uint160"
        }
      ],
      "stateMutability": "pure",
      "type": "function"
    }
  ],
  "bytecode": {
    "object": "0x608060405234801561001057600080fd5b50610295806100206000396000f3fe608060405234801561001057600080fd5b506004361061002b5760003560e01c8063f20b9d1a14610030575b600080fd5b61004361003e3660046101c1565b61005a565b604051610051929190610248565b60405180910390f35b60008061006d8a8a8a8a8a8a8a8a61007e565b909b909a5098505050505050505050565b6000808783101561008b57fe5b508383036001600160801b0386160260006001600160a01b038a1660808a6100b38b886100dd565b03901b0390506100cd8b836001600160a01b0316836100f6565b9250509850989650505050505050565b6000818310156100ed57816100ef565b825b9392505050565b600080806000198587098686029250828110908390030390508061012c576000841161012157600080fd5b5082900490506100ef565b80841161013857600080fd5b6000848688096000868103871696879004966002600389028118808a02820302808a02820302808a02820302808a02820302808a02820302808a02909103029181900381900460010186841190950394909402919094039290920491909117919091029150509392505050565b80356001600160a01b03811681146101bc57600080fd5b919050565b600080600080600080600080610100898b0312156101dd578384fd5b883597506101ed60208a016101a5565b9650604089013595506060890135945060808901356001600160801b0381168114610216578485fd5b935061022460a08a016101a5565b925061023260c08a016101a5565b915060e089013590509295985092959890939650565b9182526001600160a01b031660208201526040019056fea2646970667358221220807160b6ed6f2374fb674951237b8e156b9db543d543c467f7e4d288ad439e5864736f6c63430007060033",
    "linkReferences": {}
  },
  "methodIdentifiers": {
    "computeRewardAmount(uint256,uint160,uint256,uint256,uint128,uint160,uint160,uint256)": "f20b9d1a"
  },
  "id": 8
}