{"contracts/UniswapV3Staker.sol":{"UniswapV3Staker":{"abi":[{"inputs":[{"internalType":"contract IUniswapV3Factory","name":"_factory","type":"address"},{"internalType":"contract INonfungiblePositionManager","name":"_nonfungiblePositionManager","type":"address"},{"internalType":"uint256","name":"_maxIncentiveStartLeadTime","type":"uint256"},{"internalType":"uint256","name":"_maxIncentiveDuration","type":"uint256"}],"stateMutability":"nonpayable","type":"constructor"},{"anonymous":false,"inputs":[{"indexed":true,"internalType":"uint256","name":"tokenId","type":"uint256"},{"indexed":true,"internalType":"address","name":"oldOwner","type":"address"},{"indexed":true,"internalType":"address","name":"newOwner","type":"address"}],"name":"DepositTransferred","type":"event"},{"anonymous":false,"inputs":[{"indexed":true,"internalType":"contract IERC20Minimal","name":"rewardToken","type":"address"},{"indexed":true,"internalType":"contract IUniswapV3Pool","name":"pool","type":"address"},{"indexed":false,"internalType":"uint256","name":"startTime","type":"uint256"},{"indexed":false,"internalType":"uint256","name":"endTime","type":"uint256"},{"indexed":false,"internalType":"address","name":"refundee","type":"address"},{"indexed":false,"internalType":"uint256","name":"reward","type":"uint256"}],"name":"IncentiveCreated","type":"event"},{"anonymous":false,"inputs":[{"indexed":true,"internalType":"bytes32","name":"incentiveId","type":"bytes32"},{"indexed":false,"internalType":"uint256","name":"refund","type":"uint256"}],"name":"IncentiveEnded","type":"event"},{"anonymous":false,"inputs":[{"indexed":true,"internalType":"address","name":"to","type":"address"},{"indexed":false,"internalType":"uint256","name":"reward","type":"uint256"}],"name":"RewardClaimed","type":"event"},{"anonymous":false,"inputs":[{"indexed":true,"internalType":"uint256","name":"tokenId","type":"uint256"},{"indexed":true,"internalType":"bytes32","name":"incentiveId","type":"bytes32"},{"indexed":false,"internalType":"uint128","name":"liquidity","type":"uint128"}],"name":"TokenStaked","type":"event"},{"anonymous":false,"inputs":[{"indexed":true,"internalType":"uint256","name":"tokenId","type":"uint256"},{"indexed":true,"internalType":"bytes32","name":"incentiveId","type":"bytes32"}],"name":"TokenUnstaked","type":"event"},{"inputs":[{"internalType":"contract IERC20Minimal","name":"rewardToken","type":"address"},{"internalType":"address","name":"to","type":"address"},{"internalType":"uint256","name":"amountRequested","type":"uint256"}],"name":"claimReward","outputs":[{"internalType":"uint256","name":"reward","type":"uint256"}],"stateMutability":"nonpayable","type":"function"},{"inputs":[{"components":[{"internalType":"contract IERC20Minimal","name":"rewardToken","type":"address"},{"internalType":"contract IUniswapV3Pool","name":"pool","type":"address"},{"internalType":"uint256","name":"startTime","type":"uint256"},{"internalType":"uint256","name":"endTime","type":"uint256"},{"internalType":"address","name":"refundee","type":"address"}],"internalType":"struct IUniswapV3Staker.IncentiveKey","name":"key","type":"tuple"},{"internalType":"uint256","name":"reward","type":"uint256"}],"name":"createIncentive","outputs":[],"stateMutability":"nonpayable","type":"function"},{"inputs":[{"internalType":"uint256","name":"","type":"uint256"}],"name":"deposits","outputs":[{"internalType":"address","name":"owner","type":"address"},{"internalType":"uint48","name":"numberOfStakes","type":"uint48"},{"internalType":"int24","name":"tickLower","type":"int24"},{"internalType":"int24","name":"tickUpper","type":"int24"}],"stateMutability":"view","type":"function"},{"inputs":[{"components":[{"internalType":"contract IERC20Minimal","name":"rewardToken","type":"address"},{"internalType":"contract IUniswapV3Pool","name":"pool","type":"address"},{"internalType":"uint256","name":"startTime","type":"uint256"},{"internalType":"uint256","name":"endTime","type":"uint256"},{"internalType":"address","name":"refundee","type":"address"}],"internalType":"struct IUniswapV3Staker.IncentiveKey","name":"key","type":"tuple"}],"name":"endIncentive","outputs":[{"internalType":"uint256","name":"refund","type":"uint256"}],"stateMutability":"nonpayable","type":"function"},{"inputs":[],"name":"factory","outputs":[{"internalType":"contract IUniswapV3Factory","name":"","type":"address"}],"stateMutability":"view","type":"function"},{"inputs":[{"components":[{"internalType":"contract IERC20Minimal","name":"rewardToken","type":"address"},{"internalType":"contract IUniswapV3Pool","name":"pool","type":"address"},{"internalType":"uint256","name":"startTime","type":"uint256"},{"internalType":"uint256","name":"endTime","type":"uint256"},{"internalType":"address","name":"refundee","type":"address"}],"internalType":"struct IUniswapV3Staker.IncentiveKey","name":"key","type":"tuple"},{"internalType":"uint256","name":"tokenId","type":"uint256"}],"name":"getRewardInfo","outputs":[{"internalType":"uint256","name":"reward","type":"uint256"},{"internalType":"uint160","name":"secondsInsideX128","type":"uint160"}],"stateMutability":"view","type":"function"},{"inputs":[{"internalType":"bytes32","name":"","type":"bytes32"}],"name":"incentives","outputs":[{"internalType":"uint256","name":"totalRewardUnclaimed","type":"uint256"},{"internalType":"uint160","name":"totalSecondsClaimedX128","type":"uint160"},{"internalType":"uint96","name":"numberOfStakes","type":"uint96"}],"stateMutability":"view","type":"function"},{"inputs":[],"name":"maxIncentiveDuration","outputs":[{"internalType":"uint256","name":"","type":"uint256"}],"stateMutability":"view","type":"function"},{"inputs":[],"name":"maxIncentiveStartLeadTime","outputs":[{"internalType":"uint256","name":"","type":"uint256"}],"stateMutability":"view","type":"function"},{"inputs":[{"internalType":"bytes[]","name":"data","type":"bytes[]"}],"name":"multicall","outputs":[{"internalType":"bytes[]","name":"results","type":"bytes[]"}],"stateMutability":"payable","type":"function"},{"inputs":[],"name":"nonfungiblePositionManager","outputs":[{"internalType":"contract INonfungiblePositionManager","name":"","type":"address"}],"stateMutability":"view","type":"function"},{"inputs":[{"internalType":"address","name":"","type":"address"},{"internalType":"address","name":"from","type":"address"},{"internalType":"uint256","name":"tokenId","type":"uint256"},{"internalType":"bytes","name":"data","type":"bytes"}],"name":"onERC721Received","outputs":[{"internalType":"bytes4","name":"","type":"bytes4"}],"stateMutability":"nonpayable","type":"function"},{"inputs":[{"internalType":"contract IERC20Minimal","name":"","type":"address"},{"internalType":"address","name":"","type":"address"}],"name":"rewards","outputs":[{"internalType":"uint256","name":"","type":"uint256"}],"stateMutability":"view","type":"function"},{"inputs":[{"components":[{"internalType":"contract IERC20Minimal","name":"rewardToken","type":"address"},{"internalType":"contract IUniswapV3Pool","name":"pool","type":"address"},{"internalType":"uint256","name":"startTime","type":"uint256"},{"internalType":"uint256","name":"endTime","type":"uint256"},{"internalType":"address","name":"refundee","type":"address"}],"internalType":"struct IUniswapV3Staker.IncentiveKey","name":"key","type":"tuple"},{"internalType":"uint256","name":"tokenId","type":"uint256"}],"name":"stakeToken","outputs":[],"stateMutability":"nonpayable","type":"function"},{"inputs":[{"internalType":"uint256","name":"tokenId","type":"uint256"},{"internalType":"bytes32","name":"incentiveId","type":"bytes32"}],"name":"stakes","outputs":[{"internalType":"uint160","name":"secondsPerLiquidityInsideInitialX128","type":"uint160"},{"internalType":"uint128","name":"liquidity","type":"uint128"}],"stateMutability":"view","type":"function"},{"inputs":[{"internalType":"uint256","name":"tokenId","type":"uint256"},{"internalType":"address","name":"to","type":"address"}],"name":"transferDeposit","outputs":[],"stateMutability":"nonpayable","type":"function"},{"inputs":[{"components":[{"internalType":"contract IERC20Minimal","name":"rewardToken","type":"address"},{"internalType":"contract IUniswapV3Pool","name":"pool","type":"address"},{"internalType":"uint256","name":"startTime","type":"uint256"},{"internalType":"uint256","name":"endTime","type":"uint256"},{"internalType":"address","name":"refundee","type":"address"}],"internalType":"struct IUniswapV3Staker.IncentiveKey","name":"key","type":"tuple"},{"internalType":"uint256","name":"tokenId","type":"uint256"}],"name":"unstakeToken","outputs":[],"stateMutability":"nonpayable","type":"function"},{"inputs":[{"internalType":"uint256","name":"tokenId","type":"uint256"},{"internalType":"address","name":"to","type":"address"},{"internalType":"bytes","name":"data","type":"bytes"}],"name":"withdrawToken","outputs":[],"stateMutability":"nonpayable","type":"function"}],"evm":{"bytecode":{"linkReferences":{},"object":"6101006040523480156200001257600080fd5b5060405162003d2738038062003d2783398101604081905262000035916200005e565b6001600160601b0319606094851b81166080529290931b90911660a05260c05260e052620000c3565b6000806000806080858703121562000074578384fd5b84516200008181620000aa565b60208601519094506200009481620000aa565b6040860151606090960151949790965092505050565b6001600160a01b0381168114620000c057600080fd5b50565b60805160601c60a05160601c60c05160e051613c056200012260003980610bbd5280610cfa5250806103b15280610c595250806103ed52806104525280610b4852806110555280611ad552508061124c5280611ab45250613c056000f3fe6080604052600436106101295760003560e01c8063b02c43d0116100a5578063c45a015511610074578063e70b9e2711610059578063e70b9e271461034f578063f2d2909b1461036f578063f549ab421461038f57610129565b8063c45a01551461030c578063d953186e1461032157610129565b8063b02c43d01461026c578063b44a27221461029c578063b5ada6e4146102be578063c36c1ea5146102de57610129565b80633c423f0b116100fc5780635cc5e3d9116100e15780635cc5e3d9146101fd578063607777951461021d578063ac9650d81461024c57610129565b80633c423f0b146101c85780633dc0714b146101e857610129565b806301b754401461012e578063150b7a021461015957806326bfee04146101865780632f2d783d146101a8575b600080fd5b34801561013a57600080fd5b506101436103af565b60405161015091906139c9565b60405180910390f35b34801561016557600080fd5b5061017961017436600461284f565b6103d3565b6040516101509190612ec4565b34801561019257600080fd5b506101a66101a1366004612bac565b61071c565b005b3480156101b457600080fd5b506101436101c3366004612a56565b61084a565b3480156101d457600080fd5b506101a66101e3366004612bd0565b610928565b3480156101f457600080fd5b50610143610bbb565b34801561020957600080fd5b506101a6610218366004612b82565b610bdf565b34801561022957600080fd5b5061023d610238366004612a06565b610e10565b604051610150939291906139f6565b61025f61025a3660046128e9565b610e67565b6040516101509190612e46565b34801561027857600080fd5b5061028c610287366004612a06565b610fc1565b6040516101509493929190612e05565b3480156102a857600080fd5b506102b1611053565b6040516101509190612ef1565b3480156102ca57600080fd5b506101436102d9366004612b67565b611077565b3480156102ea57600080fd5b506102fe6102f9366004612c62565b6111c5565b604051610150929190613991565b34801561031857600080fd5b506102b161124a565b34801561032d57600080fd5b5061034161033c366004612b82565b61126e565b6040516101509291906139d2565b34801561035b57600080fd5b5061014361036a366004612a1e565b611493565b34801561037b57600080fd5b506101a661038a366004612b82565b6114b0565b34801561039b57600080fd5b506101a66103aa366004612b82565b61151b565b7f000000000000000000000000000000000000000000000000000000000000000081565b60003373ffffffffffffffffffffffffffffffffffffffff7f0000000000000000000000000000000000000000000000000000000000000000161461044d576040517f08c379a00000000000000000000000000000000000000000000000000000000081526004016104449061386a565b60405180910390fd5b6000807f000000000000000000000000000000000000000000000000000000000000000073ffffffffffffffffffffffffffffffffffffffff166399fbab88876040518263ffffffff1660e01b81526004016104a991906139c9565b6101806040518083038186803b1580156104c257600080fd5b505afa1580156104d6573d6000803e3d6000fd5b505050506040513d601f19601f820116820180604052508101906104fa9190612c83565b505050505096509650505050505060405180608001604052808873ffffffffffffffffffffffffffffffffffffffff168152602001600065ffffffffffff1681526020018360020b81526020018260020b8152506001600088815260200190815260200160002060008201518160000160006101000a81548173ffffffffffffffffffffffffffffffffffffffff021916908373ffffffffffffffffffffffffffffffffffffffff16021790555060208201518160000160146101000a81548165ffffffffffff021916908365ffffffffffff160217905550604082015181600001601a6101000a81548162ffffff021916908360020b62ffffff160217905550606082015181600001601d6101000a81548162ffffff021916908360020b62ffffff1602179055509050508673ffffffffffffffffffffffffffffffffffffffff16600073ffffffffffffffffffffffffffffffffffffffff16877fcdfc765b85e1048bee3c6a0f9d1c91fc7c4631f5fe5745a55fc6843db5c3260f60405160405180910390a483156106ef5760a08414156106ab576106a66106a085870187612b67565b87611964565b6106ef565b60006106b985870187612958565b905060005b81518110156106ec576106e48282815181106106d657fe5b602002602001015189611964565b6001016106be565b50505b507f150b7a0200000000000000000000000000000000000000000000000000000000979650505050505050565b73ffffffffffffffffffffffffffffffffffffffff8116610769576040517f08c379a000000000000000000000000000000000000000000000000000000000815260040161044490613293565b60008281526001602052604090205473ffffffffffffffffffffffffffffffffffffffff163381146107c7576040517f08c379a000000000000000000000000000000000000000000000000000000000815260040161044490612f96565b60008381526001602052604080822080547fffffffffffffffffffffffff00000000000000000000000000000000000000001673ffffffffffffffffffffffffffffffffffffffff868116918217909255915191929084169186917fcdfc765b85e1048bee3c6a0f9d1c91fc7c4631f5fe5745a55fc6843db5c3260f91a4505050565b73ffffffffffffffffffffffffffffffffffffffff83166000908152600360209081526040808320338452909152902054811580159061088957508082105b156108915750805b73ffffffffffffffffffffffffffffffffffffffff841660009081526003602090815260408083203384529091529020805482900390556108d3848483611ed1565b8273ffffffffffffffffffffffffffffffffffffffff167f106f923f993c2149d49b4255ff723acafa1f2d94393f561d3eda32ae348f72418260405161091991906139c9565b60405180910390a29392505050565b73ffffffffffffffffffffffffffffffffffffffff8216301415610978576040517f08c379a0000000000000000000000000000000000000000000000000000000008152600401610444906138c7565b6000838152600160209081526040918290208251608081018452905473ffffffffffffffffffffffffffffffffffffffff8116825265ffffffffffff740100000000000000000000000000000000000000008204169282018390527a0100000000000000000000000000000000000000000000000000008104600290810b810b810b948301949094527d0100000000000000000000000000000000000000000000000000000000009004830b830b90920b606083015215610a65576040517f08c379a000000000000000000000000000000000000000000000000000000000815260040161044490613156565b805173ffffffffffffffffffffffffffffffffffffffff163314610ab5576040517f08c379a000000000000000000000000000000000000000000000000000000000815260040161044490613591565b6000848152600160205260408082208290558251905173ffffffffffffffffffffffffffffffffffffffff9091169086907fcdfc765b85e1048bee3c6a0f9d1c91fc7c4631f5fe5745a55fc6843db5c3260f908490a46040517fb88d4fde00000000000000000000000000000000000000000000000000000000815273ffffffffffffffffffffffffffffffffffffffff7f0000000000000000000000000000000000000000000000000000000000000000169063b88d4fde90610b83903090879089908890600401612dbc565b600060405180830381600087803b158015610b9d57600080fd5b505af1158015610bb1573d6000803e3d6000fd5b5050505050505050565b7f000000000000000000000000000000000000000000000000000000000000000081565b60008111610c19576040517f08c379a0000000000000000000000000000000000000000000000000000000008152600401610444906136ce565b8160400151421115610c57576040517f08c379a0000000000000000000000000000000000000000000000000000000008152600401610444906132f0565b7f0000000000000000000000000000000000000000000000000000000000000000428360400151031115610cb7576040517f08c379a00000000000000000000000000000000000000000000000000000000081526004016104449061372b565b8160600151826040015110610cf8576040517f08c379a0000000000000000000000000000000000000000000000000000000008152600401610444906137e7565b7f000000000000000000000000000000000000000000000000000000000000000082604001518360600151031115610d5c576040517f08c379a000000000000000000000000000000000000000000000000000000000815260040161044490613789565b6000610d6783611f55565b60008181526020819052604090208054840190558351909150610d8c90333085611f86565b826020015173ffffffffffffffffffffffffffffffffffffffff16836000015173ffffffffffffffffffffffffffffffffffffffff167fa876344e28d4b5191ad03bc0d43f740e3695827ab0faccac739930b915ef8b0285604001518660600151876080015187604051610e039493929190613a30565b60405180910390a3505050565b6000602081905290815260409020805460019091015473ffffffffffffffffffffffffffffffffffffffff8116907401000000000000000000000000000000000000000090046bffffffffffffffffffffffff1683565b60608167ffffffffffffffff81118015610e8057600080fd5b50604051908082528060200260200182016040528015610eb457816020015b6060815260200190600190039081610e9f5790505b50905060005b82811015610fba5760008030868685818110610ed257fe5b9050602002810190610ee49190613a61565b604051610ef2929190612dac565b600060405180830381855af49150503d8060008114610f2d576040519150601f19603f3d011682016040523d82523d6000602084013e610f32565b606091505b509150915081610f9857604481511015610f4b57600080fd5b60048101905080806020019051810190610f659190612aef565b6040517f08c379a00000000000000000000000000000000000000000000000000000000081526004016104449190612f26565b80848481518110610fa557fe5b60209081029190910101525050600101610eba565b5092915050565b60016020526000908152604090205473ffffffffffffffffffffffffffffffffffffffff81169065ffffffffffff74010000000000000000000000000000000000000000820416907a0100000000000000000000000000000000000000000000000000008104600290810b917d0100000000000000000000000000000000000000000000000000000000009004900b84565b7f000000000000000000000000000000000000000000000000000000000000000081565b600081606001514210156110b7576040517f08c379a000000000000000000000000000000000000000000000000000000000815260040161044490613076565b60006110c283611f55565b6000818152602081905260409020805493509091508261110e576040517f08c379a000000000000000000000000000000000000000000000000000000000815260040161044490612f39565b60018101547401000000000000000000000000000000000000000090046bffffffffffffffffffffffff1615611170576040517f08c379a0000000000000000000000000000000000000000000000000000000008152600401610444906135ee565b6000815583516080850151611186919085611ed1565b817f65124e6175aa9904f40735e87e2a37c76e87a609b855287bb4d1aba8257d9763846040516111b691906139c9565b60405180910390a25050919050565b60008281526002602090815260408083208484529091529020805473ffffffffffffffffffffffffffffffffffffffff8116916bffffffffffffffffffffffff740100000000000000000000000000000000000000009092048216918214156112425760018101546fffffffffffffffffffffffffffffffff1691505b509250929050565b7f000000000000000000000000000000000000000000000000000000000000000081565b600080600061127c85611f55565b905060008061128b86846111c5565b915091506000816fffffffffffffffffffffffffffffffff16116112db576040517f08c379a000000000000000000000000000000000000000000000000000000000815260040161044490613019565b60008681526001602081815260408084208151608081018352905473ffffffffffffffffffffffffffffffffffffffff80821683527401000000000000000000000000000000000000000080830465ffffffffffff16848701527a0100000000000000000000000000000000000000000000000000008304600290810b810b810b8587019081527d010000000000000000000000000000000000000000000000000000000000909404810b810b900b60608086019182528c8a52898852868a2087519182018852805482529098015480841689890152919091046bffffffffffffffffffffffff1687860152948e01519151945193517fa38807f200000000000000000000000000000000000000000000000000000000815292969491169263a38807f29261140e929190600401612f12565b60606040518083038186803b15801561142657600080fd5b505afa15801561143a573d6000803e3d6000fd5b505050506040513d601f19601f8201168201806040525081019061145e9190612a96565b50915050611482826000015183602001518c604001518d60600151888a874261200c565b909b909a5098505050505050505050565b600360209081526000928352604080842090915290825290205481565b60008181526001602052604090205473ffffffffffffffffffffffffffffffffffffffff16331461150d576040517f08c379a000000000000000000000000000000000000000000000000000000000815260040161044490613671565b6115178282611964565b5050565b6000818152600160209081526040918290208251608081018452905473ffffffffffffffffffffffffffffffffffffffff8116825265ffffffffffff74010000000000000000000000000000000000000000820416928201929092527a0100000000000000000000000000000000000000000000000000008204600290810b810b810b938201939093527d010000000000000000000000000000000000000000000000000000000000909104820b820b90910b60608083019190915283015142101561163157805173ffffffffffffffffffffffffffffffffffffffff163314611631576040517f08c379a00000000000000000000000000000000000000000000000000000000081526004016104449061342e565b600061163c84611f55565b905060008061164b85846111c5565b91509150806fffffffffffffffffffffffffffffffff166000141561169c576040517f08c379a0000000000000000000000000000000000000000000000000000000008152600401610444906130f9565b600083815260208181526040808320888452600180845282852080547fffffffffffffffffffffffffffffffffffffffffffffffffffffffffffffffff65ffffffffffff740100000000000000000000000000000000000000008084048216830190911681027fffffffffffff000000000000ffffffffffffffffffffffffffffffffffffffff9093169290921790925591830180546bffffffffffffffffffffffff848204811690930190921690920273ffffffffffffffffffffffffffffffffffffffff91821617909155928a01518883015160608a015193517fa38807f2000000000000000000000000000000000000000000000000000000008152929594919091169263a38807f2926117b7929190600401612f12565b60606040518083038186803b1580156117cf57600080fd5b505afa1580156117e3573d6000803e3d6000fd5b505050506040513d601f19601f820116820180604052508101906118079190612a96565b508354600185015460408c015160608d0151939550600094508493611848939273ffffffffffffffffffffffffffffffffffffffff169190898b894261200c565b6001860180547fffffffffffffffffffffffff0000000000000000000000000000000000000000811673ffffffffffffffffffffffffffffffffffffffff9182168401821617909155865483900387558c51811660009081526003602090815260408083208e5190941683529281528282208054860190558d8252600281528282208c8352905290812090815591935091506bffffffffffffffffffffffff6fffffffffffffffffffffffffffffffff87161061192a576001810180547fffffffffffffffffffffffffffffffff000000000000000000000000000000001690555b60405188908b907fe1ba67e807ae0efa0a9549f9520ddc15c27f0a4dae2bc045e800ca66a940778f90600090a35050505050505050505050565b81604001514210156119a2576040517f08c379a0000000000000000000000000000000000000000000000000000000008152600401610444906134b1565b816060015142106119df576040517f08c379a000000000000000000000000000000000000000000000000000000000815260040161044490613236565b60006119ea83611f55565b600081815260208190526040902054909150611a32576040517f08c379a0000000000000000000000000000000000000000000000000000000008152600401610444906133d1565b60008281526002602090815260408083208484529091529020547401000000000000000000000000000000000000000090046bffffffffffffffffffffffff1615611aa9576040517f08c379a0000000000000000000000000000000000000000000000000000000008152600401610444906131d9565b600080600080611afa7f00000000000000000000000000000000000000000000000000000000000000007f00000000000000000000000000000000000000000000000000000000000000008861208e565b9350935093509350866020015173ffffffffffffffffffffffffffffffffffffffff168473ffffffffffffffffffffffffffffffffffffffff1614611b6b576040517f08c379a00000000000000000000000000000000000000000000000000000000081526004016104449061350e565b6000816fffffffffffffffffffffffffffffffff1611611bb7576040517f08c379a000000000000000000000000000000000000000000000000000000000815260040161044490613373565b6000868152600160208181526040808420805465ffffffffffff740100000000000000000000000000000000000000008083048216870190911681027fffffffffffff000000000000ffffffffffffffffffffffffffffffffffffffff9092169190911790915589855291849052808420830180546bffffffffffffffffffffffff848204811690950190941690920273ffffffffffffffffffffffffffffffffffffffff93841617909155517fa38807f20000000000000000000000000000000000000000000000000000000081529086169063a38807f290611ca19087908790600401612f12565b60606040518083038186803b158015611cb957600080fd5b505afa158015611ccd573d6000803e3d6000fd5b505050506040513d601f19601f82011682018060405250810190611cf19190612a96565b509150506bffffffffffffffffffffffff6fffffffffffffffffffffffffffffffff831610611e0a576040805160608101825273ffffffffffffffffffffffffffffffffffffffff80841682526bffffffffffffffffffffffff60208084018281526fffffffffffffffffffffffffffffffff80891686880190815260008f8152600285528881208f82529094529690922094518554915190931674010000000000000000000000000000000000000000029284167fffffffffffffffffffffffff000000000000000000000000000000000000000090911617909216178255915160019091018054919092167fffffffffffffffffffffffffffffffff00000000000000000000000000000000909116179055611e8e565b6000878152600260209081526040808320898452909152902080547fffffffffffffffffffffffff00000000000000000000000000000000000000001673ffffffffffffffffffffffffffffffffffffffff8381169190911716740100000000000000000000000000000000000000006bffffffffffffffffffffffff8516021790555b85877f3fe90ccd0a34e28f2b4b7a1e8323415ed9dd595f4eec5dfd461d18c2df336dbd84604051611ebf9190613974565b60405180910390a35050505050505050565b611ef08373ffffffffffffffffffffffffffffffffffffffff16612197565b611f45576040517f08c379a000000000000000000000000000000000000000000000000000000000815260040180806020018281038252603a815260200180613b81603a913960400191505060405180910390fd5b611f5083838361219d565b505050565b600081604051602001611f689190613924565b6040516020818303038152906040528051906020012090505b919050565b611fa58473ffffffffffffffffffffffffffffffffffffffff16612197565b611ffa576040517f08c379a000000000000000000000000000000000000000000000000000000000815260040180806020018281038252603e815260200180613bbb603e913960400191505060405180910390fd5b61200684848484612379565b50505050565b6000808783101561201957fe5b508383036fffffffffffffffffffffffffffffffff861602600073ffffffffffffffffffffffffffffffffffffffff8a1660808a6120578b8861255e565b03901b03905061207e8b8373ffffffffffffffffffffffffffffffffffffffff1683612577565b9250509850989650505050505050565b60008060008060008060008873ffffffffffffffffffffffffffffffffffffffff166399fbab88896040518263ffffffff1660e01b8152600401808281526020019150506101806040518083038186803b1580156120eb57600080fd5b505afa1580156120ff573d6000803e3d6000fd5b505050506040513d61018081101561211657600080fd5b50604080820151606080840151608085015160a086015160c087015160e0909701518651948501875273ffffffffffffffffffffffffffffffffffffffff80871686528416602086015262ffffff8316968501969096529b50949950929750909550909350909150612189908b90612644565b965050505093509350935093565b3b151590565b6040805173ffffffffffffffffffffffffffffffffffffffff8481166024830152604480830185905283518084039091018152606490920183526020820180517bffffffffffffffffffffffffffffffffffffffffffffffffffffffff167fa9059cbb000000000000000000000000000000000000000000000000000000001781529251825160009485949389169392918291908083835b6020831061227257805182527fffffffffffffffffffffffffffffffffffffffffffffffffffffffffffffffe09092019160209182019101612235565b6001836020036101000a0380198251168184511680821785525050505050509050019150506000604051808303816000865af19150503d80600081146122d4576040519150601f19603f3d011682016040523d82523d6000602084013e6122d9565b606091505b5091509150818015612307575080511580612307575080806020019051602081101561230457600080fd5b50515b61237257604080517f08c379a000000000000000000000000000000000000000000000000000000000815260206004820152600260248201527f5354000000000000000000000000000000000000000000000000000000000000604482015290519081900360640190fd5b5050505050565b6040805173ffffffffffffffffffffffffffffffffffffffff85811660248301528481166044830152606480830185905283518084039091018152608490920183526020820180517bffffffffffffffffffffffffffffffffffffffffffffffffffffffff167f23b872dd00000000000000000000000000000000000000000000000000000000178152925182516000948594938a169392918291908083835b6020831061245657805182527fffffffffffffffffffffffffffffffffffffffffffffffffffffffffffffffe09092019160209182019101612419565b6001836020036101000a0380198251168184511680821785525050505050509050019150506000604051808303816000865af19150503d80600081146124b8576040519150601f19603f3d011682016040523d82523d6000602084013e6124bd565b606091505b50915091508180156124eb5750805115806124eb57508080602001905160208110156124e857600080fd5b50515b61255657604080517f08c379a000000000000000000000000000000000000000000000000000000000815260206004820152600360248201527f5354460000000000000000000000000000000000000000000000000000000000604482015290519081900360640190fd5b505050505050565b60008183101561256e5781612570565b825b9392505050565b600080807fffffffffffffffffffffffffffffffffffffffffffffffffffffffffffffffff858709868602925082811090839003039050806125cb57600084116125c057600080fd5b508290049050612570565b8084116125d757600080fd5b6000848688096000868103871696879004966002600389028118808a02820302808a02820302808a02820302808a02820302808a02820302808a02909103029181900381900460010186841190950394909402919094039290920491909117919091029150509392505050565b6000816020015173ffffffffffffffffffffffffffffffffffffffff16826000015173ffffffffffffffffffffffffffffffffffffffff161061268657600080fd5b508051602080830151604093840151845173ffffffffffffffffffffffffffffffffffffffff94851681850152939091168385015262ffffff166060808401919091528351808403820181526080840185528051908301207fff0000000000000000000000000000000000000000000000000000000000000060a085015294901b7fffffffffffffffffffffffffffffffffffffffff0000000000000000000000001660a183015260b58201939093527fe34f199b19b2b4f47f68442619d555527d244f78a3297ea89325f843f87b8b5460d5808301919091528251808303909101815260f5909101909152805191012090565b8051611f8181613b5b565b8051600281900b8114611f8157600080fd5b600060a082840312156127a8578081fd5b60405160a0810181811067ffffffffffffffff821117156127c557fe5b60405290508082356127d681613b5b565b815260208301356127e681613b5b565b806020830152506040830135604082015260608301356060820152608083013561280f81613b5b565b6080919091015292915050565b80516fffffffffffffffffffffffffffffffff81168114611f8157600080fd5b805162ffffff81168114611f8157600080fd5b600080600080600060808688031215612866578081fd5b853561287181613b5b565b9450602086013561288181613b5b565b935060408601359250606086013567ffffffffffffffff808211156128a4578283fd5b818801915088601f8301126128b7578283fd5b8135818111156128c5578384fd5b8960208285010111156128d6578384fd5b9699959850939650602001949392505050565b600080602083850312156128fb578182fd5b823567ffffffffffffffff80821115612912578384fd5b818501915085601f830112612925578384fd5b813581811115612933578485fd5b8660208083028501011115612946578485fd5b60209290920196919550909350505050565b6000602080838503121561296a578182fd5b823567ffffffffffffffff80821115612981578384fd5b818501915085601f830112612994578384fd5b8135818111156129a057fe5b6129ad8485830201613acb565b818152848101925083850160a0808402860187018a10156129cc578788fd5b8795505b838610156129f8576129e28a83612797565b85526001959095019493860193908101906129d0565b509098975050505050505050565b600060208284031215612a17578081fd5b5035919050565b60008060408385031215612a30578182fd5b8235612a3b81613b5b565b91506020830135612a4b81613b5b565b809150509250929050565b600080600060608486031215612a6a578081fd5b8335612a7581613b5b565b92506020840135612a8581613b5b565b929592945050506040919091013590565b600080600060608486031215612aaa578081fd5b83518060060b8114612aba578182fd5b6020850151909350612acb81613b5b565b604085015190925063ffffffff81168114612ae4578182fd5b809150509250925092565b600060208284031215612b00578081fd5b815167ffffffffffffffff811115612b16578182fd5b8201601f81018413612b26578182fd5b8051612b39612b3482613aef565b613acb565b818152856020838501011115612b4d578384fd5b612b5e826020830160208601613b2f565b95945050505050565b600060a08284031215612b78578081fd5b6125708383612797565b60008060c08385031215612b94578182fd5b612b9e8484612797565b9460a0939093013593505050565b60008060408385031215612bbe578182fd5b823591506020830135612a4b81613b5b565b600080600060608486031215612be4578081fd5b833592506020840135612bf681613b5b565b9150604084013567ffffffffffffffff811115612c11578182fd5b8401601f81018613612c21578182fd5b8035612c2f612b3482613aef565b818152876020838501011115612c43578384fd5b8160208401602083013783602083830101528093505050509250925092565b60008060408385031215612c74578182fd5b50508035926020909101359150565b6000806000806000806000806000806000806101808d8f031215612ca557898afd5b8c516bffffffffffffffffffffffff81168114612cc0578a8bfd5b9b50612cce60208e0161277a565b9a50612cdc60408e0161277a565b9950612cea60608e0161277a565b9850612cf860808e0161283c565b9750612d0660a08e01612785565b9650612d1460c08e01612785565b9550612d2260e08e0161281c565b94506101008d015193506101208d01519250612d416101408e0161281c565b9150612d506101608e0161281c565b90509295989b509295989b509295989b565b60008151808452612d7a816020860160208601613b2f565b601f017fffffffffffffffffffffffffffffffffffffffffffffffffffffffffffffffe0169290920160200192915050565b6000828483379101908152919050565b600073ffffffffffffffffffffffffffffffffffffffff808716835280861660208401525083604083015260806060830152612dfb6080830184612d62565b9695505050505050565b73ffffffffffffffffffffffffffffffffffffffff94909416845265ffffffffffff929092166020840152600290810b60408401520b606082015260800190565b6000602080830181845280855180835260408601915060408482028701019250838701855b82811015612eb7577fffffffffffffffffffffffffffffffffffffffffffffffffffffffffffffffc0888603018452612ea5858351612d62565b94509285019290850190600101612e6b565b5092979650505050505050565b7fffffffff0000000000000000000000000000000000000000000000000000000091909116815260200190565b73ffffffffffffffffffffffffffffffffffffffff91909116815260200190565b600292830b8152910b602082015260400190565b6000602082526125706020830184612d62565b60208082526032908201527f556e697377617056335374616b65723a3a656e64496e63656e746976653a206e60408201527f6f20726566756e6420617661696c61626c650000000000000000000000000000606082015260800190565b60208082526045908201527f556e697377617056335374616b65723a3a7472616e736665724465706f73697460408201527f3a2063616e206f6e6c792062652063616c6c6564206279206465706f7369742060608201527f6f776e6572000000000000000000000000000000000000000000000000000000608082015260a00190565b60208082526034908201527f556e697377617056335374616b65723a3a676574526577617264496e666f3a2060408201527f7374616b6520646f6573206e6f74206578697374000000000000000000000000606082015260800190565b60208082526043908201527f556e697377617056335374616b65723a3a656e64496e63656e746976653a206360408201527f616e6e6f7420656e6420696e63656e74697665206265666f726520656e64207460608201527f696d650000000000000000000000000000000000000000000000000000000000608082015260a00190565b60208082526033908201527f556e697377617056335374616b65723a3a756e7374616b65546f6b656e3a207360408201527f74616b6520646f6573206e6f7420657869737400000000000000000000000000606082015260800190565b60208082526042908201527f556e697377617056335374616b65723a3a7769746864726177546f6b656e3a2060408201527f63616e6e6f7420776974686472617720746f6b656e207768696c65207374616b60608201527f6564000000000000000000000000000000000000000000000000000000000000608082015260a00190565b60208082526031908201527f556e697377617056335374616b65723a3a7374616b65546f6b656e3a20746f6b60408201527f656e20616c7265616479207374616b6564000000000000000000000000000000606082015260800190565b6020808252602c908201527f556e697377617056335374616b65723a3a7374616b65546f6b656e3a20696e6360408201527f656e7469766520656e6465640000000000000000000000000000000000000000606082015260800190565b6020808252603c908201527f556e697377617056335374616b65723a3a7472616e736665724465706f73697460408201527f3a20696e76616c6964207472616e7366657220726563697069656e7400000000606082015260800190565b60208082526049908201527f556e697377617056335374616b65723a3a637265617465496e63656e7469766560408201527f3a2073746172742074696d65206d757374206265206e6f77206f7220696e207460608201527f6865206675747572650000000000000000000000000000000000000000000000608082015260a00190565b602080825260409082018190527f556e697377617056335374616b65723a3a7374616b65546f6b656e3a2063616e908201527f6e6f74207374616b6520746f6b656e20776974682030206c6971756964697479606082015260800190565b60208082526033908201527f556e697377617056335374616b65723a3a7374616b65546f6b656e3a206e6f6e60408201527f2d6578697374656e7420696e63656e7469766500000000000000000000000000606082015260800190565b60208082526056908201527f556e697377617056335374616b65723a3a756e7374616b65546f6b656e3a206f60408201527f6e6c79206f776e65722063616e20776974686472617720746f6b656e2062656660608201527f6f726520696e63656e7469766520656e642074696d6500000000000000000000608082015260a00190565b60208082526032908201527f556e697377617056335374616b65723a3a7374616b65546f6b656e3a20696e6360408201527f656e74697665206e6f7420737461727465640000000000000000000000000000606082015260800190565b60208082526041908201527f556e697377617056335374616b65723a3a7374616b65546f6b656e3a20746f6b60408201527f656e20706f6f6c206973206e6f742074686520696e63656e7469766520706f6f60608201527f6c00000000000000000000000000000000000000000000000000000000000000608082015260a00190565b6020808252603d908201527f556e697377617056335374616b65723a3a7769746864726177546f6b656e3a2060408201527f6f6e6c79206f776e65722063616e20776974686472617720746f6b656e000000606082015260800190565b6020808252604d908201527f556e697377617056335374616b65723a3a656e64496e63656e746976653a206360408201527f616e6e6f7420656e6420696e63656e74697665207768696c65206465706f736960608201527f747320617265207374616b656400000000000000000000000000000000000000608082015260a00190565b60208082526037908201527f556e697377617056335374616b65723a3a7374616b65546f6b656e3a206f6e6c60408201527f79206f776e65722063616e207374616b6520746f6b656e000000000000000000606082015260800190565b60208082526039908201527f556e697377617056335374616b65723a3a637265617465496e63656e7469766560408201527f3a20726577617264206d75737420626520706f73697469766500000000000000606082015260800190565b602080825260409082018190527f556e697377617056335374616b65723a3a637265617465496e63656e74697665908201527f3a2073746172742074696d6520746f6f2066617220696e746f20667574757265606082015260800190565b602080825260409082018190527f556e697377617056335374616b65723a3a637265617465496e63656e74697665908201527f3a20696e63656e74697665206475726174696f6e20697320746f6f206c6f6e67606082015260800190565b60208082526044908201527f556e697377617056335374616b65723a3a637265617465496e63656e7469766560408201527f3a2073746172742074696d65206d757374206265206265666f726520656e642060608201527f74696d6500000000000000000000000000000000000000000000000000000000608082015260a00190565b60208082526032908201527f556e697377617056335374616b65723a3a6f6e4552433732315265636569766560408201527f643a206e6f74206120756e697633206e66740000000000000000000000000000606082015260800190565b60208082526039908201527f556e697377617056335374616b65723a3a7769746864726177546f6b656e3a2060408201527f63616e6e6f7420776974686472617720746f207374616b657200000000000000606082015260800190565b815173ffffffffffffffffffffffffffffffffffffffff90811682526020808401518216908301526040808401519083015260608084015190830152608092830151169181019190915260a00190565b6fffffffffffffffffffffffffffffffff91909116815260200190565b73ffffffffffffffffffffffffffffffffffffffff9290921682526fffffffffffffffffffffffffffffffff16602082015260400190565b90815260200190565b91825273ffffffffffffffffffffffffffffffffffffffff16602082015260400190565b92835273ffffffffffffffffffffffffffffffffffffffff9190911660208301526bffffffffffffffffffffffff16604082015260600190565b938452602084019290925273ffffffffffffffffffffffffffffffffffffffff166040830152606082015260800190565b60008083357fffffffffffffffffffffffffffffffffffffffffffffffffffffffffffffffe1843603018112613a95578283fd5b83018035915067ffffffffffffffff821115613aaf578283fd5b602001915036819003821315613ac457600080fd5b9250929050565b60405181810167ffffffffffffffff81118282101715613ae757fe5b604052919050565b600067ffffffffffffffff821115613b0357fe5b50601f017fffffffffffffffffffffffffffffffffffffffffffffffffffffffffffffffe01660200190565b60005b83811015613b4a578181015183820152602001613b32565b838111156120065750506000910152565b73ffffffffffffffffffffffffffffffffffffffff81168114613b7d57600080fd5b5056fe5472616e7366657248656c706572457874656e6465643a3a736166655472616e736665723a2063616c6c20746f206e6f6e2d636f6e74726163745472616e7366657248656c706572457874656e6465643a3a736166655472616e7366657246726f6d3a2063616c6c20746f206e6f6e2d636f6e7472616374a164736f6c6343000706000a","opcodes":"PUSH2 0x100 PUSH1 0x40 MSTORE CALLVALUE DUP1 ISZERO PUSH3 0x12 JUMPI PUSH1 0x0 DUP1 REVERT JUMPDEST POP PUSH1 0x40 MLOAD PUSH3 0x3D27 CODESIZE SUB DUP1 PUSH3 0x3D27 DUP4 CODECOPY DUP2 ADD PUSH1 0x40 DUP2 SWAP1 MSTORE PUSH3 0x35 SWAP2 PUSH3 0x5E JUMP JUMPDEST PUSH1 0x1 PUSH1 0x1 PUSH1 0x60 SHL SUB NOT PUSH1 0x60 SWAP5 DUP6 SHL DUP2 AND PUSH1 0x80 MSTORE SWAP3 SWAP1 SWAP4 SHL SWAP1 SWAP2 AND PUSH1 0xA0 MSTORE PUSH1 0xC0 MSTORE PUSH1 0xE0 MSTORE PUSH3 0xC3 JUMP JUMPDEST PUSH1 0x0 DUP1 PUSH1 0x0 DUP1 PUSH1 0x80 DUP6 DUP8 SUB SLT ISZERO PUSH3 0x74 JUMPI DUP4 DUP5 REVERT JUMPDEST DUP5 MLOAD PUSH3 0x81 DUP2 PUSH3 0xAA JUMP JUMPDEST PUSH1 0x20 DUP7 ADD MLOAD SWAP1 SWAP5 POP PUSH3 0x94 DUP2 PUSH3 0xAA JUMP JUMPDEST PUSH1 0x40 DUP7 ADD MLOAD PUSH1 0x60 SWAP1 SWAP7 ADD MLOAD SWAP5 SWAP8 SWAP1 SWAP7 POP SWAP3 POP POP POP JUMP JUMPDEST PUSH1 0x1 PUSH1 0x1 PUSH1 0xA0 SHL SUB DUP2 AND DUP2 EQ PUSH3 0xC0 JUMPI PUSH1 0x0 DUP1 REVERT JUMPDEST POP JUMP JUMPDEST PUSH1 0x80 MLOAD PUSH1 0x60 SHR PUSH1 0xA0 MLOAD PUSH1 0x60 SHR PUSH1 0xC0 MLOAD PUSH1 0xE0 MLOAD PUSH2 0x3C05 PUSH3 0x122 PUSH1 0x0 CODECOPY DUP1 PUSH2 0xBBD MSTORE DUP1 PUSH2 0xCFA MSTORE POP DUP1 PUSH2 0x3B1 MSTORE DUP1 PUSH2 0xC59 MSTORE POP DUP1 PUSH2 0x3ED MSTORE DUP1 PUSH2 0x452 MSTORE DUP1 PUSH2 0xB48 MSTORE DUP1 PUSH2 0x1055 MSTORE DUP1 PUSH2 0x1AD5 MSTORE POP DUP1 PUSH2 0x124C MSTORE DUP1 PUSH2 0x1AB4 MSTORE POP PUSH2 0x3C05 PUSH1 0x0 RETURN INVALID PUSH1 0x80 PUSH1 0x40 MSTORE PUSH1 0x4 CALLDATASIZE LT PUSH2 0x129 JUMPI PUSH1 0x0 CALLDATALOAD PUSH1 0xE0 SHR DUP1 PUSH4 0xB02C43D0 GT PUSH2 0xA5 JUMPI DUP1 PUSH4 0xC45A0155 GT PUSH2 0x74 JUMPI DUP1 PUSH4 0xE70B9E27 GT PUSH2 0x59 JUMPI DUP1 PUSH4 0xE70B9E27 EQ PUSH2 0x34F JUMPI DUP1 PUSH4 0xF2D2909B EQ PUSH2 0x36F JUMPI DUP1 PUSH4 0xF549AB42 EQ PUSH2 0x38F JUMPI PUSH2 0x129 JUMP JUMPDEST DUP1 PUSH4 0xC45A0155 EQ PUSH2 0x30C JUMPI DUP1 PUSH4 0xD953186E EQ PUSH2 0x321 JUMPI PUSH2 0x129 JUMP JUMPDEST DUP1 PUSH4 0xB02C43D0 EQ PUSH2 0x26C JUMPI DUP1 PUSH4 0xB44A2722 EQ PUSH2 0x29C JUMPI DUP1 PUSH4 0xB5ADA6E4 EQ PUSH2 0x2BE JUMPI DUP1 PUSH4 0xC36C1EA5 EQ PUSH2 0x2DE JUMPI PUSH2 0x129 JUMP JUMPDEST DUP1 PUSH4 0x3C423F0B GT PUSH2 0xFC JUMPI DUP1 PUSH4 0x5CC5E3D9 GT PUSH2 0xE1 JUMPI DUP1 PUSH4 0x5CC5E3D9 EQ PUSH2 0x1FD JUMPI DUP1 PUSH4 0x60777795 EQ PUSH2 0x21D JUMPI DUP1 PUSH4 0xAC9650D8 EQ PUSH2 0x24C JUMPI PUSH2 0x129 JUMP JUMPDEST DUP1 PUSH4 0x3C423F0B EQ PUSH2 0x1C8 JUMPI DUP1 PUSH4 0x3DC0714B EQ PUSH2 0x1E8 JUMPI PUSH2 0x129 JUMP JUMPDEST DUP1 PUSH4 0x1B75440 EQ PUSH2 0x12E JUMPI DUP1 PUSH4 0x150B7A02 EQ PUSH2 0x159 JUMPI DUP1 PUSH4 0x26BFEE04 EQ PUSH2 0x186 JUMPI DUP1 PUSH4 0x2F2D783D EQ PUSH2 0x1A8 JUMPI JUMPDEST PUSH1 0x0 DUP1 REVERT JUMPDEST CALLVALUE DUP1 ISZERO PUSH2 0x13A JUMPI PUSH1 0x0 DUP1 REVERT JUMPDEST POP PUSH2 0x143 PUSH2 0x3AF JUMP JUMPDEST PUSH1 0x40 MLOAD PUSH2 0x150 SWAP2 SWAP1 PUSH2 0x39C9 JUMP JUMPDEST PUSH1 0x40 MLOAD DUP1 SWAP2 SUB SWAP1 RETURN JUMPDEST CALLVALUE DUP1 ISZERO PUSH2 0x165 JUMPI PUSH1 0x0 DUP1 REVERT JUMPDEST POP PUSH2 0x179 PUSH2 0x174 CALLDATASIZE PUSH1 0x4 PUSH2 0x284F JUMP JUMPDEST PUSH2 0x3D3 JUMP JUMPDEST PUSH1 0x40 MLOAD PUSH2 0x150 SWAP2 SWAP1 PUSH2 0x2EC4 JUMP JUMPDEST CALLVALUE DUP1 ISZERO PUSH2 0x192 JUMPI PUSH1 0x0 DUP1 REVERT JUMPDEST POP PUSH2 0x1A6 PUSH2 0x1A1 CALLDATASIZE PUSH1 0x4 PUSH2 0x2BAC JUMP JUMPDEST PUSH2 0x71C JUMP JUMPDEST STOP JUMPDEST CALLVALUE DUP1 ISZERO PUSH2 0x1B4 JUMPI PUSH1 0x0 DUP1 REVERT JUMPDEST POP PUSH2 0x143 PUSH2 0x1C3 CALLDATASIZE PUSH1 0x4 PUSH2 0x2A56 JUMP JUMPDEST PUSH2 0x84A JUMP JUMPDEST CALLVALUE DUP1 ISZERO PUSH2 0x1D4 JUMPI PUSH1 0x0 DUP1 REVERT JUMPDEST POP PUSH2 0x1A6 PUSH2 0x1E3 CALLDATASIZE PUSH1 0x4 PUSH2 0x2BD0 JUMP JUMPDEST PUSH2 0x928 JUMP JUMPDEST CALLVALUE DUP1 ISZERO PUSH2 0x1F4 JUMPI PUSH1 0x0 DUP1 REVERT JUMPDEST POP PUSH2 0x143 PUSH2 0xBBB JUMP JUMPDEST CALLVALUE DUP1 ISZERO PUSH2 0x209 JUMPI PUSH1 0x0 DUP1 REVERT JUMPDEST POP PUSH2 0x1A6 PUSH2 0x218 CALLDATASIZE PUSH1 0x4 PUSH2 0x2B82 JUMP JUMPDEST PUSH2 0xBDF JUMP JUMPDEST CALLVALUE DUP1 ISZERO PUSH2 0x229 JUMPI PUSH1 0x0 DUP1 REVERT JUMPDEST POP PUSH2 0x23D PUSH2 0x238 CALLDATASIZE PUSH1 0x4 PUSH2 0x2A06 JUMP JUMPDEST PUSH2 0xE10 JUMP JUMPDEST PUSH1 0x40 MLOAD PUSH2 0x150 SWAP4 SWAP3 SWAP2 SWAP1 PUSH2 0x39F6 JUMP JUMPDEST PUSH2 0x25F PUSH2 0x25A CALLDATASIZE PUSH1 0x4 PUSH2 0x28E9 JUMP JUMPDEST PUSH2 0xE67 JUMP JUMPDEST PUSH1 0x40 MLOAD PUSH2 0x150 SWAP2 SWAP1 PUSH2 0x2E46 JUMP JUMPDEST CALLVALUE DUP1 ISZERO PUSH2 0x278 JUMPI PUSH1 0x0 DUP1 REVERT JUMPDEST POP PUSH2 0x28C PUSH2 0x287 CALLDATASIZE PUSH1 0x4 PUSH2 0x2A06 JUMP JUMPDEST PUSH2 0xFC1 JUMP JUMPDEST PUSH1 0x40 MLOAD PUSH2 0x150 SWAP5 SWAP4 SWAP3 SWAP2 SWAP1 PUSH2 0x2E05 JUMP JUMPDEST CALLVALUE DUP1 ISZERO PUSH2 0x2A8 JUMPI PUSH1 0x0 DUP1 REVERT JUMPDEST POP PUSH2 0x2B1 PUSH2 0x1053 JUMP JUMPDEST PUSH1 0x40 MLOAD PUSH2 0x150 SWAP2 SWAP1 PUSH2 0x2EF1 JUMP JUMPDEST CALLVALUE DUP1 ISZERO PUSH2 0x2CA JUMPI PUSH1 0x0 DUP1 REVERT JUMPDEST POP PUSH2 0x143 PUSH2 0x2D9 CALLDATASIZE PUSH1 0x4 PUSH2 0x2B67 JUMP JUMPDEST PUSH2 0x1077 JUMP JUMPDEST CALLVALUE DUP1 ISZERO PUSH2 0x2EA JUMPI PUSH1 0x0 DUP1 REVERT JUMPDEST POP PUSH2 0x2FE PUSH2 0x2F9 CALLDATASIZE PUSH1 0x4 PUSH2 0x2C62 JUMP JUMPDEST PUSH2 0x11C5 JUMP JUMPDEST PUSH1 0x40 MLOAD PUSH2 0x150 SWAP3 SWAP2 SWAP1 PUSH2 0x3991 JUMP JUMPDEST CALLVALUE DUP1 ISZERO PUSH2 0x318 JUMPI PUSH1 0x0 DUP1 REVERT JUMPDEST POP PUSH2 0x2B1 PUSH2 0x124A JUMP JUMPDEST CALLVALUE DUP1 ISZERO PUSH2 0x32D JUMPI PUSH1 0x0 DUP1 REVERT JUMPDEST POP PUSH2 0x341 PUSH2 0x33C CALLDATASIZE PUSH1 0x4 PUSH2 0x2B82 JUMP JUMPDEST PUSH2 0x126E JUMP JUMPDEST PUSH1 0x40 MLOAD PUSH2 0x150 SWAP3 SWAP2 SWAP1 PUSH2 0x39D2 JUMP JUMPDEST CALLVALUE DUP1 ISZERO PUSH2 0x35B JUMPI PUSH1 0x0 DUP1 REVERT JUMPDEST POP PUSH2 0x143 PUSH2 0x36A CALLDATASIZE PUSH1 0x4 PUSH2 0x2A1E JUMP JUMPDEST PUSH2 0x1493 JUMP JUMPDEST CALLVALUE DUP1 ISZERO PUSH2 0x37B JUMPI PUSH1 0x0 DUP1 REVERT JUMPDEST POP PUSH2 0x1A6 PUSH2 0x38A CALLDATASIZE PUSH1 0x4 PUSH2 0x2B82 JUMP JUMPDEST PUSH2 0x14B0 JUMP JUMPDEST CALLVALUE DUP1 ISZERO PUSH2 0x39B JUMPI PUSH1 0x0 DUP1 REVERT JUMPDEST POP PUSH2 0x1A6 PUSH2 0x3AA CALLDATASIZE PUSH1 0x4 PUSH2 0x2B82 JUMP JUMPDEST PUSH2 0x151B JUMP JUMPDEST PUSH32 0x0 DUP2 JUMP JUMPDEST PUSH1 0x0 CALLER PUSH20 0xFFFFFFFFFFFFFFFFFFFFFFFFFFFFFFFFFFFFFFFF PUSH32 0x0 AND EQ PUSH2 0x44D JUMPI PUSH1 0x40 MLOAD PUSH32 0x8C379A000000000000000000000000000000000000000000000000000000000 DUP2 MSTORE PUSH1 0x4 ADD PUSH2 0x444 SWAP1 PUSH2 0x386A JUMP JUMPDEST PUSH1 0x40 MLOAD DUP1 SWAP2 SUB SWAP1 REVERT JUMPDEST PUSH1 0x0 DUP1 PUSH32 0x0 PUSH20 0xFFFFFFFFFFFFFFFFFFFFFFFFFFFFFFFFFFFFFFFF AND PUSH4 0x99FBAB88 DUP8 PUSH1 0x40 MLOAD DUP3 PUSH4 0xFFFFFFFF AND PUSH1 0xE0 SHL DUP2 MSTORE PUSH1 0x4 ADD PUSH2 0x4A9 SWAP2 SWAP1 PUSH2 0x39C9 JUMP JUMPDEST PUSH2 0x180 PUSH1 0x40 MLOAD DUP1 DUP4 SUB DUP2 DUP7 DUP1 EXTCODESIZE ISZERO DUP1 ISZERO PUSH2 0x4C2 JUMPI PUSH1 0x0 DUP1 REVERT JUMPDEST POP GAS STATICCALL ISZERO DUP1 ISZERO PUSH2 0x4D6 JUMPI RETURNDATASIZE PUSH1 0x0 DUP1 RETURNDATACOPY RETURNDATASIZE PUSH1 0x0 REVERT JUMPDEST POP POP POP POP PUSH1 0x40 MLOAD RETURNDATASIZE PUSH1 0x1F NOT PUSH1 0x1F DUP3 ADD AND DUP3 ADD DUP1 PUSH1 0x40 MSTORE POP DUP2 ADD SWAP1 PUSH2 0x4FA SWAP2 SWAP1 PUSH2 0x2C83 JUMP JUMPDEST POP POP POP POP POP SWAP7 POP SWAP7 POP POP POP POP POP POP PUSH1 0x40 MLOAD DUP1 PUSH1 0x80 ADD PUSH1 0x40 MSTORE DUP1 DUP9 PUSH20 0xFFFFFFFFFFFFFFFFFFFFFFFFFFFFFFFFFFFFFFFF AND DUP2 MSTORE PUSH1 0x20 ADD PUSH1 0x0 PUSH6 0xFFFFFFFFFFFF AND DUP2 MSTORE PUSH1 0x20 ADD DUP4 PUSH1 0x2 SIGNEXTEND DUP2 MSTORE PUSH1 0x20 ADD DUP3 PUSH1 0x2 SIGNEXTEND DUP2 MSTORE POP PUSH1 0x1 PUSH1 0x0 DUP9 DUP2 MSTORE PUSH1 0x20 ADD SWAP1 DUP2 MSTORE PUSH1 0x20 ADD PUSH1 0x0 KECCAK256 PUSH1 0x0 DUP3 ADD MLOAD DUP2 PUSH1 0x0 ADD PUSH1 0x0 PUSH2 0x100 EXP DUP2 SLOAD DUP2 PUSH20 0xFFFFFFFFFFFFFFFFFFFFFFFFFFFFFFFFFFFFFFFF MUL NOT AND SWAP1 DUP4 PUSH20 0xFFFFFFFFFFFFFFFFFFFFFFFFFFFFFFFFFFFFFFFF AND MUL OR SWAP1 SSTORE POP PUSH1 0x20 DUP3 ADD MLOAD DUP2 PUSH1 0x0 ADD PUSH1 0x14 PUSH2 0x100 EXP DUP2 SLOAD DUP2 PUSH6 0xFFFFFFFFFFFF MUL NOT AND SWAP1 DUP4 PUSH6 0xFFFFFFFFFFFF AND MUL OR SWAP1 SSTORE POP PUSH1 0x40 DUP3 ADD MLOAD DUP2 PUSH1 0x0 ADD PUSH1 0x1A PUSH2 0x100 EXP DUP2 SLOAD DUP2 PUSH3 0xFFFFFF MUL NOT AND SWAP1 DUP4 PUSH1 0x2 SIGNEXTEND PUSH3 0xFFFFFF AND MUL OR SWAP1 SSTORE POP PUSH1 0x60 DUP3 ADD MLOAD DUP2 PUSH1 0x0 ADD PUSH1 0x1D PUSH2 0x100 EXP DUP2 SLOAD DUP2 PUSH3 0xFFFFFF MUL NOT AND SWAP1 DUP4 PUSH1 0x2 SIGNEXTEND PUSH3 0xFFFFFF AND MUL OR SWAP1 SSTORE POP SWAP1 POP POP DUP7 PUSH20 0xFFFFFFFFFFFFFFFFFFFFFFFFFFFFFFFFFFFFFFFF AND PUSH1 0x0 PUSH20 0xFFFFFFFFFFFFFFFFFFFFFFFFFFFFFFFFFFFFFFFF AND DUP8 PUSH32 0xCDFC765B85E1048BEE3C6A0F9D1C91FC7C4631F5FE5745A55FC6843DB5C3260F PUSH1 0x40 MLOAD PUSH1 0x40 MLOAD DUP1 SWAP2 SUB SWAP1 LOG4 DUP4 ISZERO PUSH2 0x6EF JUMPI PUSH1 0xA0 DUP5 EQ ISZERO PUSH2 0x6AB JUMPI PUSH2 0x6A6 PUSH2 0x6A0 DUP6 DUP8 ADD DUP8 PUSH2 0x2B67 JUMP JUMPDEST DUP8 PUSH2 0x1964 JUMP JUMPDEST PUSH2 0x6EF JUMP JUMPDEST PUSH1 0x0 PUSH2 0x6B9 DUP6 DUP8 ADD DUP8 PUSH2 0x2958 JUMP JUMPDEST SWAP1 POP PUSH1 0x0 JUMPDEST DUP2 MLOAD DUP2 LT ISZERO PUSH2 0x6EC JUMPI PUSH2 0x6E4 DUP3 DUP3 DUP2 MLOAD DUP2 LT PUSH2 0x6D6 JUMPI INVALID JUMPDEST PUSH1 0x20 MUL PUSH1 0x20 ADD ADD MLOAD DUP10 PUSH2 0x1964 JUMP JUMPDEST PUSH1 0x1 ADD PUSH2 0x6BE JUMP JUMPDEST POP POP JUMPDEST POP PUSH32 0x150B7A0200000000000000000000000000000000000000000000000000000000 SWAP8 SWAP7 POP POP POP POP POP POP POP JUMP JUMPDEST PUSH20 0xFFFFFFFFFFFFFFFFFFFFFFFFFFFFFFFFFFFFFFFF DUP2 AND PUSH2 0x769 JUMPI PUSH1 0x40 MLOAD PUSH32 0x8C379A000000000000000000000000000000000000000000000000000000000 DUP2 MSTORE PUSH1 0x4 ADD PUSH2 0x444 SWAP1 PUSH2 0x3293 JUMP JUMPDEST PUSH1 0x0 DUP3 DUP2 MSTORE PUSH1 0x1 PUSH1 0x20 MSTORE PUSH1 0x40 SWAP1 KECCAK256 SLOAD PUSH20 0xFFFFFFFFFFFFFFFFFFFFFFFFFFFFFFFFFFFFFFFF AND CALLER DUP2 EQ PUSH2 0x7C7 JUMPI PUSH1 0x40 MLOAD PUSH32 0x8C379A000000000000000000000000000000000000000000000000000000000 DUP2 MSTORE PUSH1 0x4 ADD PUSH2 0x444 SWAP1 PUSH2 0x2F96 JUMP JUMPDEST PUSH1 0x0 DUP4 DUP2 MSTORE PUSH1 0x1 PUSH1 0x20 MSTORE PUSH1 0x40 DUP1 DUP3 KECCAK256 DUP1 SLOAD PUSH32 0xFFFFFFFFFFFFFFFFFFFFFFFF0000000000000000000000000000000000000000 AND PUSH20 0xFFFFFFFFFFFFFFFFFFFFFFFFFFFFFFFFFFFFFFFF DUP7 DUP2 AND SWAP2 DUP3 OR SWAP1 SWAP3 SSTORE SWAP2 MLOAD SWAP2 SWAP3 SWAP1 DUP5 AND SWAP2 DUP7 SWAP2 PUSH32 0xCDFC765B85E1048BEE3C6A0F9D1C91FC7C4631F5FE5745A55FC6843DB5C3260F SWAP2 LOG4 POP POP POP JUMP JUMPDEST PUSH20 0xFFFFFFFFFFFFFFFFFFFFFFFFFFFFFFFFFFFFFFFF DUP4 AND PUSH1 0x0 SWAP1 DUP2 MSTORE PUSH1 0x3 PUSH1 0x20 SWAP1 DUP2 MSTORE PUSH1 0x40 DUP1 DUP4 KECCAK256 CALLER DUP5 MSTORE SWAP1 SWAP2 MSTORE SWAP1 KECCAK256 SLOAD DUP2 ISZERO DUP1 ISZERO SWAP1 PUSH2 0x889 JUMPI POP DUP1 DUP3 LT JUMPDEST ISZERO PUSH2 0x891 JUMPI POP DUP1 JUMPDEST PUSH20 0xFFFFFFFFFFFFFFFFFFFFFFFFFFFFFFFFFFFFFFFF DUP5 AND PUSH1 0x0 SWAP1 DUP2 MSTORE PUSH1 0x3 PUSH1 0x20 SWAP1 DUP2 MSTORE PUSH1 0x40 DUP1 DUP4 KECCAK256 CALLER DUP5 MSTORE SWAP1 SWAP2 MSTORE SWAP1 KECCAK256 DUP1 SLOAD DUP3 SWAP1 SUB SWAP1 SSTORE PUSH2 0x8D3 DUP5 DUP5 DUP4 PUSH2 0x1ED1 JUMP JUMPDEST DUP3 PUSH20 0xFFFFFFFFFFFFFFFFFFFFFFFFFFFFFFFFFFFFFFFF AND PUSH32 0x106F923F993C2149D49B4255FF723ACAFA1F2D94393F561D3EDA32AE348F7241 DUP3 PUSH1 0x40 MLOAD PUSH2 0x919 SWAP2 SWAP1 PUSH2 0x39C9 JUMP JUMPDEST PUSH1 0x40 MLOAD DUP1 SWAP2 SUB SWAP1 LOG2 SWAP4 SWAP3 POP POP POP JUMP JUMPDEST PUSH20 0xFFFFFFFFFFFFFFFFFFFFFFFFFFFFFFFFFFFFFFFF DUP3 AND ADDRESS EQ ISZERO PUSH2 0x978 JUMPI PUSH1 0x40 MLOAD PUSH32 0x8C379A000000000000000000000000000000000000000000000000000000000 DUP2 MSTORE PUSH1 0x4 ADD PUSH2 0x444 SWAP1 PUSH2 0x38C7 JUMP JUMPDEST PUSH1 0x0 DUP4 DUP2 MSTORE PUSH1 0x1 PUSH1 0x20 SWAP1 DUP2 MSTORE PUSH1 0x40 SWAP2 DUP3 SWAP1 KECCAK256 DUP3 MLOAD PUSH1 0x80 DUP2 ADD DUP5 MSTORE SWAP1 SLOAD PUSH20 0xFFFFFFFFFFFFFFFFFFFFFFFFFFFFFFFFFFFFFFFF DUP2 AND DUP3 MSTORE PUSH6 0xFFFFFFFFFFFF PUSH21 0x10000000000000000000000000000000000000000 DUP3 DIV AND SWAP3 DUP3 ADD DUP4 SWAP1 MSTORE PUSH27 0x10000000000000000000000000000000000000000000000000000 DUP2 DIV PUSH1 0x2 SWAP1 DUP2 SIGNEXTEND DUP2 SIGNEXTEND DUP2 SIGNEXTEND SWAP5 DUP4 ADD SWAP5 SWAP1 SWAP5 MSTORE PUSH30 0x10000000000000000000000000000000000000000000000000000000000 SWAP1 DIV DUP4 SIGNEXTEND DUP4 SIGNEXTEND SWAP1 SWAP3 SIGNEXTEND PUSH1 0x60 DUP4 ADD MSTORE ISZERO PUSH2 0xA65 JUMPI PUSH1 0x40 MLOAD PUSH32 0x8C379A000000000000000000000000000000000000000000000000000000000 DUP2 MSTORE PUSH1 0x4 ADD PUSH2 0x444 SWAP1 PUSH2 0x3156 JUMP JUMPDEST DUP1 MLOAD PUSH20 0xFFFFFFFFFFFFFFFFFFFFFFFFFFFFFFFFFFFFFFFF AND CALLER EQ PUSH2 0xAB5 JUMPI PUSH1 0x40 MLOAD PUSH32 0x8C379A000000000000000000000000000000000000000000000000000000000 DUP2 MSTORE PUSH1 0x4 ADD PUSH2 0x444 SWAP1 PUSH2 0x3591 JUMP JUMPDEST PUSH1 0x0 DUP5 DUP2 MSTORE PUSH1 0x1 PUSH1 0x20 MSTORE PUSH1 0x40 DUP1 DUP3 KECCAK256 DUP3 SWAP1 SSTORE DUP3 MLOAD SWAP1 MLOAD PUSH20 0xFFFFFFFFFFFFFFFFFFFFFFFFFFFFFFFFFFFFFFFF SWAP1 SWAP2 AND SWAP1 DUP7 SWAP1 PUSH32 0xCDFC765B85E1048BEE3C6A0F9D1C91FC7C4631F5FE5745A55FC6843DB5C3260F SWAP1 DUP5 SWAP1 LOG4 PUSH1 0x40 MLOAD PUSH32 0xB88D4FDE00000000000000000000000000000000000000000000000000000000 DUP2 MSTORE PUSH20 0xFFFFFFFFFFFFFFFFFFFFFFFFFFFFFFFFFFFFFFFF PUSH32 0x0 AND SWAP1 PUSH4 0xB88D4FDE SWAP1 PUSH2 0xB83 SWAP1 ADDRESS SWAP1 DUP8 SWAP1 DUP10 SWAP1 DUP9 SWAP1 PUSH1 0x4 ADD PUSH2 0x2DBC JUMP JUMPDEST PUSH1 0x0 PUSH1 0x40 MLOAD DUP1 DUP4 SUB DUP2 PUSH1 0x0 DUP8 DUP1 EXTCODESIZE ISZERO DUP1 ISZERO PUSH2 0xB9D JUMPI PUSH1 0x0 DUP1 REVERT JUMPDEST POP GAS CALL ISZERO DUP1 ISZERO PUSH2 0xBB1 JUMPI RETURNDATASIZE PUSH1 0x0 DUP1 RETURNDATACOPY RETURNDATASIZE PUSH1 0x0 REVERT JUMPDEST POP POP POP POP POP POP POP POP JUMP JUMPDEST PUSH32 0x0 DUP2 JUMP JUMPDEST PUSH1 0x0 DUP2 GT PUSH2 0xC19 JUMPI PUSH1 0x40 MLOAD PUSH32 0x8C379A000000000000000000000000000000000000000000000000000000000 DUP2 MSTORE PUSH1 0x4 ADD PUSH2 0x444 SWAP1 PUSH2 0x36CE JUMP JUMPDEST DUP2 PUSH1 0x40 ADD MLOAD TIMESTAMP GT ISZERO PUSH2 0xC57 JUMPI PUSH1 0x40 MLOAD PUSH32 0x8C379A000000000000000000000000000000000000000000000000000000000 DUP2 MSTORE PUSH1 0x4 ADD PUSH2 0x444 SWAP1 PUSH2 0x32F0 JUMP JUMPDEST PUSH32 0x0 TIMESTAMP DUP4 PUSH1 0x40 ADD MLOAD SUB GT ISZERO PUSH2 0xCB7 JUMPI PUSH1 0x40 MLOAD PUSH32 0x8C379A000000000000000000000000000000000000000000000000000000000 DUP2 MSTORE PUSH1 0x4 ADD PUSH2 0x444 SWAP1 PUSH2 0x372B JUMP JUMPDEST DUP2 PUSH1 0x60 ADD MLOAD DUP3 PUSH1 0x40 ADD MLOAD LT PUSH2 0xCF8 JUMPI PUSH1 0x40 MLOAD PUSH32 0x8C379A000000000000000000000000000000000000000000000000000000000 DUP2 MSTORE PUSH1 0x4 ADD PUSH2 0x444 SWAP1 PUSH2 0x37E7 JUMP JUMPDEST PUSH32 0x0 DUP3 PUSH1 0x40 ADD MLOAD DUP4 PUSH1 0x60 ADD MLOAD SUB GT ISZERO PUSH2 0xD5C JUMPI PUSH1 0x40 MLOAD PUSH32 0x8C379A000000000000000000000000000000000000000000000000000000000 DUP2 MSTORE PUSH1 0x4 ADD PUSH2 0x444 SWAP1 PUSH2 0x3789 JUMP JUMPDEST PUSH1 0x0 PUSH2 0xD67 DUP4 PUSH2 0x1F55 JUMP JUMPDEST PUSH1 0x0 DUP2 DUP2 MSTORE PUSH1 0x20 DUP2 SWAP1 MSTORE PUSH1 0x40 SWAP1 KECCAK256 DUP1 SLOAD DUP5 ADD SWAP1 SSTORE DUP4 MLOAD SWAP1 SWAP2 POP PUSH2 0xD8C SWAP1 CALLER ADDRESS DUP6 PUSH2 0x1F86 JUMP JUMPDEST DUP3 PUSH1 0x20 ADD MLOAD PUSH20 0xFFFFFFFFFFFFFFFFFFFFFFFFFFFFFFFFFFFFFFFF AND DUP4 PUSH1 0x0 ADD MLOAD PUSH20 0xFFFFFFFFFFFFFFFFFFFFFFFFFFFFFFFFFFFFFFFF AND PUSH32 0xA876344E28D4B5191AD03BC0D43F740E3695827AB0FACCAC739930B915EF8B02 DUP6 PUSH1 0x40 ADD MLOAD DUP7 PUSH1 0x60 ADD MLOAD DUP8 PUSH1 0x80 ADD MLOAD DUP8 PUSH1 0x40 MLOAD PUSH2 0xE03 SWAP5 SWAP4 SWAP3 SWAP2 SWAP1 PUSH2 0x3A30 JUMP JUMPDEST PUSH1 0x40 MLOAD DUP1 SWAP2 SUB SWAP1 LOG3 POP POP POP JUMP JUMPDEST PUSH1 0x0 PUSH1 0x20 DUP2 SWAP1 MSTORE SWAP1 DUP2 MSTORE PUSH1 0x40 SWAP1 KECCAK256 DUP1 SLOAD PUSH1 0x1 SWAP1 SWAP2 ADD SLOAD PUSH20 0xFFFFFFFFFFFFFFFFFFFFFFFFFFFFFFFFFFFFFFFF DUP2 AND SWAP1 PUSH21 0x10000000000000000000000000000000000000000 SWAP1 DIV PUSH12 0xFFFFFFFFFFFFFFFFFFFFFFFF AND DUP4 JUMP JUMPDEST PUSH1 0x60 DUP2 PUSH8 0xFFFFFFFFFFFFFFFF DUP2 GT DUP1 ISZERO PUSH2 0xE80 JUMPI PUSH1 0x0 DUP1 REVERT JUMPDEST POP PUSH1 0x40 MLOAD SWAP1 DUP1 DUP3 MSTORE DUP1 PUSH1 0x20 MUL PUSH1 0x20 ADD DUP3 ADD PUSH1 0x40 MSTORE DUP1 ISZERO PUSH2 0xEB4 JUMPI DUP2 PUSH1 0x20 ADD JUMPDEST PUSH1 0x60 DUP2 MSTORE PUSH1 0x20 ADD SWAP1 PUSH1 0x1 SWAP1 SUB SWAP1 DUP2 PUSH2 0xE9F JUMPI SWAP1 POP JUMPDEST POP SWAP1 POP PUSH1 0x0 JUMPDEST DUP3 DUP2 LT ISZERO PUSH2 0xFBA JUMPI PUSH1 0x0 DUP1 ADDRESS DUP7 DUP7 DUP6 DUP2 DUP2 LT PUSH2 0xED2 JUMPI INVALID JUMPDEST SWAP1 POP PUSH1 0x20 MUL DUP2 ADD SWAP1 PUSH2 0xEE4 SWAP2 SWAP1 PUSH2 0x3A61 JUMP JUMPDEST PUSH1 0x40 MLOAD PUSH2 0xEF2 SWAP3 SWAP2 SWAP1 PUSH2 0x2DAC JUMP JUMPDEST PUSH1 0x0 PUSH1 0x40 MLOAD DUP1 DUP4 SUB DUP2 DUP6 GAS DELEGATECALL SWAP2 POP POP RETURNDATASIZE DUP1 PUSH1 0x0 DUP2 EQ PUSH2 0xF2D JUMPI PUSH1 0x40 MLOAD SWAP2 POP PUSH1 0x1F NOT PUSH1 0x3F RETURNDATASIZE ADD AND DUP3 ADD PUSH1 0x40 MSTORE RETURNDATASIZE DUP3 MSTORE RETURNDATASIZE PUSH1 0x0 PUSH1 0x20 DUP5 ADD RETURNDATACOPY PUSH2 0xF32 JUMP JUMPDEST PUSH1 0x60 SWAP2 POP JUMPDEST POP SWAP2 POP SWAP2 POP DUP2 PUSH2 0xF98 JUMPI PUSH1 0x44 DUP2 MLOAD LT ISZERO PUSH2 0xF4B JUMPI PUSH1 0x0 DUP1 REVERT JUMPDEST PUSH1 0x4 DUP2 ADD SWAP1 POP DUP1 DUP1 PUSH1 0x20 ADD SWAP1 MLOAD DUP2 ADD SWAP1 PUSH2 0xF65 SWAP2 SWAP1 PUSH2 0x2AEF JUMP JUMPDEST PUSH1 0x40 MLOAD PUSH32 0x8C379A000000000000000000000000000000000000000000000000000000000 DUP2 MSTORE PUSH1 0x4 ADD PUSH2 0x444 SWAP2 SWAP1 PUSH2 0x2F26 JUMP JUMPDEST DUP1 DUP5 DUP5 DUP2 MLOAD DUP2 LT PUSH2 0xFA5 JUMPI INVALID JUMPDEST PUSH1 0x20 SWAP1 DUP2 MUL SWAP2 SWAP1 SWAP2 ADD ADD MSTORE POP POP PUSH1 0x1 ADD PUSH2 0xEBA JUMP JUMPDEST POP SWAP3 SWAP2 POP POP JUMP JUMPDEST PUSH1 0x1 PUSH1 0x20 MSTORE PUSH1 0x0 SWAP1 DUP2 MSTORE PUSH1 0x40 SWAP1 KECCAK256 SLOAD PUSH20 0xFFFFFFFFFFFFFFFFFFFFFFFFFFFFFFFFFFFFFFFF DUP2 AND SWAP1 PUSH6 0xFFFFFFFFFFFF PUSH21 0x10000000000000000000000000000000000000000 DUP3 DIV AND SWAP1 PUSH27 0x10000000000000000000000000000000000000000000000000000 DUP2 DIV PUSH1 0x2 SWAP1 DUP2 SIGNEXTEND SWAP2 PUSH30 0x10000000000000000000000000000000000000000000000000000000000 SWAP1 DIV SWAP1 SIGNEXTEND DUP5 JUMP JUMPDEST PUSH32 0x0 DUP2 JUMP JUMPDEST PUSH1 0x0 DUP2 PUSH1 0x60 ADD MLOAD TIMESTAMP LT ISZERO PUSH2 0x10B7 JUMPI PUSH1 0x40 MLOAD PUSH32 0x8C379A000000000000000000000000000000000000000000000000000000000 DUP2 MSTORE PUSH1 0x4 ADD PUSH2 0x444 SWAP1 PUSH2 0x3076 JUMP JUMPDEST PUSH1 0x0 PUSH2 0x10C2 DUP4 PUSH2 0x1F55 JUMP JUMPDEST PUSH1 0x0 DUP2 DUP2 MSTORE PUSH1 0x20 DUP2 SWAP1 MSTORE PUSH1 0x40 SWAP1 KECCAK256 DUP1 SLOAD SWAP4 POP SWAP1 SWAP2 POP DUP3 PUSH2 0x110E JUMPI PUSH1 0x40 MLOAD PUSH32 0x8C379A000000000000000000000000000000000000000000000000000000000 DUP2 MSTORE PUSH1 0x4 ADD PUSH2 0x444 SWAP1 PUSH2 0x2F39 JUMP JUMPDEST PUSH1 0x1 DUP2 ADD SLOAD PUSH21 0x10000000000000000000000000000000000000000 SWAP1 DIV PUSH12 0xFFFFFFFFFFFFFFFFFFFFFFFF AND ISZERO PUSH2 0x1170 JUMPI PUSH1 0x40 MLOAD PUSH32 0x8C379A000000000000000000000000000000000000000000000000000000000 DUP2 MSTORE PUSH1 0x4 ADD PUSH2 0x444 SWAP1 PUSH2 0x35EE JUMP JUMPDEST PUSH1 0x0 DUP2 SSTORE DUP4 MLOAD PUSH1 0x80 DUP6 ADD MLOAD PUSH2 0x1186 SWAP2 SWAP1 DUP6 PUSH2 0x1ED1 JUMP JUMPDEST DUP2 PUSH32 0x65124E6175AA9904F40735E87E2A37C76E87A609B855287BB4D1ABA8257D9763 DUP5 PUSH1 0x40 MLOAD PUSH2 0x11B6 SWAP2 SWAP1 PUSH2 0x39C9 JUMP JUMPDEST PUSH1 0x40 MLOAD DUP1 SWAP2 SUB SWAP1 LOG2 POP POP SWAP2 SWAP1 POP JUMP JUMPDEST PUSH1 0x0 DUP3 DUP2 MSTORE PUSH1 0x2 PUSH1 0x20 SWAP1 DUP2 MSTORE PUSH1 0x40 DUP1 DUP4 KECCAK256 DUP5 DUP5 MSTORE SWAP1 SWAP2 MSTORE SWAP1 KECCAK256 DUP1 SLOAD PUSH20 0xFFFFFFFFFFFFFFFFFFFFFFFFFFFFFFFFFFFFFFFF DUP2 AND SWAP2 PUSH12 0xFFFFFFFFFFFFFFFFFFFFFFFF PUSH21 0x10000000000000000000000000000000000000000 SWAP1 SWAP3 DIV DUP3 AND SWAP2 DUP3 EQ ISZERO PUSH2 0x1242 JUMPI PUSH1 0x1 DUP2 ADD SLOAD PUSH16 0xFFFFFFFFFFFFFFFFFFFFFFFFFFFFFFFF AND SWAP2 POP JUMPDEST POP SWAP3 POP SWAP3 SWAP1 POP JUMP JUMPDEST PUSH32 0x0 DUP2 JUMP JUMPDEST PUSH1 0x0 DUP1 PUSH1 0x0 PUSH2 0x127C DUP6 PUSH2 0x1F55 JUMP JUMPDEST SWAP1 POP PUSH1 0x0 DUP1 PUSH2 0x128B DUP7 DUP5 PUSH2 0x11C5 JUMP JUMPDEST SWAP2 POP SWAP2 POP PUSH1 0x0 DUP2 PUSH16 0xFFFFFFFFFFFFFFFFFFFFFFFFFFFFFFFF AND GT PUSH2 0x12DB JUMPI PUSH1 0x40 MLOAD PUSH32 0x8C379A000000000000000000000000000000000000000000000000000000000 DUP2 MSTORE PUSH1 0x4 ADD PUSH2 0x444 SWAP1 PUSH2 0x3019 JUMP JUMPDEST PUSH1 0x0 DUP7 DUP2 MSTORE PUSH1 0x1 PUSH1 0x20 DUP2 DUP2 MSTORE PUSH1 0x40 DUP1 DUP5 KECCAK256 DUP2 MLOAD PUSH1 0x80 DUP2 ADD DUP4 MSTORE SWAP1 SLOAD PUSH20 0xFFFFFFFFFFFFFFFFFFFFFFFFFFFFFFFFFFFFFFFF DUP1 DUP3 AND DUP4 MSTORE PUSH21 0x10000000000000000000000000000000000000000 DUP1 DUP4 DIV PUSH6 0xFFFFFFFFFFFF AND DUP5 DUP8 ADD MSTORE PUSH27 0x10000000000000000000000000000000000000000000000000000 DUP4 DIV PUSH1 0x2 SWAP1 DUP2 SIGNEXTEND DUP2 SIGNEXTEND DUP2 SIGNEXTEND DUP6 DUP8 ADD SWAP1 DUP2 MSTORE PUSH30 0x10000000000000000000000000000000000000000000000000000000000 SWAP1 SWAP5 DIV DUP2 SIGNEXTEND DUP2 SIGNEXTEND SWAP1 SIGNEXTEND PUSH1 0x60 DUP1 DUP7 ADD SWAP2 DUP3 MSTORE DUP13 DUP11 MSTORE DUP10 DUP9 MSTORE DUP7 DUP11 KECCAK256 DUP8 MLOAD SWAP2 DUP3 ADD DUP9 MSTORE DUP1 SLOAD DUP3 MSTORE SWAP1 SWAP9 ADD SLOAD DUP1 DUP5 AND DUP10 DUP10 ADD MSTORE SWAP2 SWAP1 SWAP2 DIV PUSH12 0xFFFFFFFFFFFFFFFFFFFFFFFF AND DUP8 DUP7 ADD MSTORE SWAP5 DUP15 ADD MLOAD SWAP2 MLOAD SWAP5 MLOAD SWAP4 MLOAD PUSH32 0xA38807F200000000000000000000000000000000000000000000000000000000 DUP2 MSTORE SWAP3 SWAP7 SWAP5 SWAP2 AND SWAP3 PUSH4 0xA38807F2 SWAP3 PUSH2 0x140E SWAP3 SWAP2 SWAP1 PUSH1 0x4 ADD PUSH2 0x2F12 JUMP JUMPDEST PUSH1 0x60 PUSH1 0x40 MLOAD DUP1 DUP4 SUB DUP2 DUP7 DUP1 EXTCODESIZE ISZERO DUP1 ISZERO PUSH2 0x1426 JUMPI PUSH1 0x0 DUP1 REVERT JUMPDEST POP GAS STATICCALL ISZERO DUP1 ISZERO PUSH2 0x143A JUMPI RETURNDATASIZE PUSH1 0x0 DUP1 RETURNDATACOPY RETURNDATASIZE PUSH1 0x0 REVERT JUMPDEST POP POP POP POP PUSH1 0x40 MLOAD RETURNDATASIZE PUSH1 0x1F NOT PUSH1 0x1F DUP3 ADD AND DUP3 ADD DUP1 PUSH1 0x40 MSTORE POP DUP2 ADD SWAP1 PUSH2 0x145E SWAP2 SWAP1 PUSH2 0x2A96 JUMP JUMPDEST POP SWAP2 POP POP PUSH2 0x1482 DUP3 PUSH1 0x0 ADD MLOAD DUP4 PUSH1 0x20 ADD MLOAD DUP13 PUSH1 0x40 ADD MLOAD DUP14 PUSH1 0x60 ADD MLOAD DUP9 DUP11 DUP8 TIMESTAMP PUSH2 0x200C JUMP JUMPDEST SWAP1 SWAP12 SWAP1 SWAP11 POP SWAP9 POP POP POP POP POP POP POP POP POP JUMP JUMPDEST PUSH1 0x3 PUSH1 0x20 SWAP1 DUP2 MSTORE PUSH1 0x0 SWAP3 DUP4 MSTORE PUSH1 0x40 DUP1 DUP5 KECCAK256 SWAP1 SWAP2 MSTORE SWAP1 DUP3 MSTORE SWAP1 KECCAK256 SLOAD DUP2 JUMP JUMPDEST PUSH1 0x0 DUP2 DUP2 MSTORE PUSH1 0x1 PUSH1 0x20 MSTORE PUSH1 0x40 SWAP1 KECCAK256 SLOAD PUSH20 0xFFFFFFFFFFFFFFFFFFFFFFFFFFFFFFFFFFFFFFFF AND CALLER EQ PUSH2 0x150D JUMPI PUSH1 0x40 MLOAD PUSH32 0x8C379A000000000000000000000000000000000000000000000000000000000 DUP2 MSTORE PUSH1 0x4 ADD PUSH2 0x444 SWAP1 PUSH2 0x3671 JUMP JUMPDEST PUSH2 0x1517 DUP3 DUP3 PUSH2 0x1964 JUMP JUMPDEST POP POP JUMP JUMPDEST PUSH1 0x0 DUP2 DUP2 MSTORE PUSH1 0x1 PUSH1 0x20 SWAP1 DUP2 MSTORE PUSH1 0x40 SWAP2 DUP3 SWAP1 KECCAK256 DUP3 MLOAD PUSH1 0x80 DUP2 ADD DUP5 MSTORE SWAP1 SLOAD PUSH20 0xFFFFFFFFFFFFFFFFFFFFFFFFFFFFFFFFFFFFFFFF DUP2 AND DUP3 MSTORE PUSH6 0xFFFFFFFFFFFF PUSH21 0x10000000000000000000000000000000000000000 DUP3 DIV AND SWAP3 DUP3 ADD SWAP3 SWAP1 SWAP3 MSTORE PUSH27 0x10000000000000000000000000000000000000000000000000000 DUP3 DIV PUSH1 0x2 SWAP1 DUP2 SIGNEXTEND DUP2 SIGNEXTEND DUP2 SIGNEXTEND SWAP4 DUP3 ADD SWAP4 SWAP1 SWAP4 MSTORE PUSH30 0x10000000000000000000000000000000000000000000000000000000000 SWAP1 SWAP2 DIV DUP3 SIGNEXTEND DUP3 SIGNEXTEND SWAP1 SWAP2 SIGNEXTEND PUSH1 0x60 DUP1 DUP4 ADD SWAP2 SWAP1 SWAP2 MSTORE DUP4 ADD MLOAD TIMESTAMP LT ISZERO PUSH2 0x1631 JUMPI DUP1 MLOAD PUSH20 0xFFFFFFFFFFFFFFFFFFFFFFFFFFFFFFFFFFFFFFFF AND CALLER EQ PUSH2 0x1631 JUMPI PUSH1 0x40 MLOAD PUSH32 0x8C379A000000000000000000000000000000000000000000000000000000000 DUP2 MSTORE PUSH1 0x4 ADD PUSH2 0x444 SWAP1 PUSH2 0x342E JUMP JUMPDEST PUSH1 0x0 PUSH2 0x163C DUP5 PUSH2 0x1F55 JUMP JUMPDEST SWAP1 POP PUSH1 0x0 DUP1 PUSH2 0x164B DUP6 DUP5 PUSH2 0x11C5 JUMP JUMPDEST SWAP2 POP SWAP2 POP DUP1 PUSH16 0xFFFFFFFFFFFFFFFFFFFFFFFFFFFFFFFF AND PUSH1 0x0 EQ ISZERO PUSH2 0x169C JUMPI PUSH1 0x40 MLOAD PUSH32 0x8C379A000000000000000000000000000000000000000000000000000000000 DUP2 MSTORE PUSH1 0x4 ADD PUSH2 0x444 SWAP1 PUSH2 0x30F9 JUMP JUMPDEST PUSH1 0x0 DUP4 DUP2 MSTORE PUSH1 0x20 DUP2 DUP2 MSTORE PUSH1 0x40 DUP1 DUP4 KECCAK256 DUP9 DUP5 MSTORE PUSH1 0x1 DUP1 DUP5 MSTORE DUP3 DUP6 KECCAK256 DUP1 SLOAD PUSH32 0xFFFFFFFFFFFFFFFFFFFFFFFFFFFFFFFFFFFFFFFFFFFFFFFFFFFFFFFFFFFFFFFF PUSH6 0xFFFFFFFFFFFF PUSH21 0x10000000000000000000000000000000000000000 DUP1 DUP5 DIV DUP3 AND DUP4 ADD SWAP1 SWAP2 AND DUP2 MUL PUSH32 0xFFFFFFFFFFFF000000000000FFFFFFFFFFFFFFFFFFFFFFFFFFFFFFFFFFFFFFFF SWAP1 SWAP4 AND SWAP3 SWAP1 SWAP3 OR SWAP1 SWAP3 SSTORE SWAP2 DUP4 ADD DUP1 SLOAD PUSH12 0xFFFFFFFFFFFFFFFFFFFFFFFF DUP5 DUP3 DIV DUP2 AND SWAP1 SWAP4 ADD SWAP1 SWAP3 AND SWAP1 SWAP3 MUL PUSH20 0xFFFFFFFFFFFFFFFFFFFFFFFFFFFFFFFFFFFFFFFF SWAP2 DUP3 AND OR SWAP1 SWAP2 SSTORE SWAP3 DUP11 ADD MLOAD DUP9 DUP4 ADD MLOAD PUSH1 0x60 DUP11 ADD MLOAD SWAP4 MLOAD PUSH32 0xA38807F200000000000000000000000000000000000000000000000000000000 DUP2 MSTORE SWAP3 SWAP6 SWAP5 SWAP2 SWAP1 SWAP2 AND SWAP3 PUSH4 0xA38807F2 SWAP3 PUSH2 0x17B7 SWAP3 SWAP2 SWAP1 PUSH1 0x4 ADD PUSH2 0x2F12 JUMP JUMPDEST PUSH1 0x60 PUSH1 0x40 MLOAD DUP1 DUP4 SUB DUP2 DUP7 DUP1 EXTCODESIZE ISZERO DUP1 ISZERO PUSH2 0x17CF JUMPI PUSH1 0x0 DUP1 REVERT JUMPDEST POP GAS STATICCALL ISZERO DUP1 ISZERO PUSH2 0x17E3 JUMPI RETURNDATASIZE PUSH1 0x0 DUP1 RETURNDATACOPY RETURNDATASIZE PUSH1 0x0 REVERT JUMPDEST POP POP POP POP PUSH1 0x40 MLOAD RETURNDATASIZE PUSH1 0x1F NOT PUSH1 0x1F DUP3 ADD AND DUP3 ADD DUP1 PUSH1 0x40 MSTORE POP DUP2 ADD SWAP1 PUSH2 0x1807 SWAP2 SWAP1 PUSH2 0x2A96 JUMP JUMPDEST POP DUP4 SLOAD PUSH1 0x1 DUP6 ADD SLOAD PUSH1 0x40 DUP13 ADD MLOAD PUSH1 0x60 DUP14 ADD MLOAD SWAP4 SWAP6 POP PUSH1 0x0 SWAP5 POP DUP5 SWAP4 PUSH2 0x1848 SWAP4 SWAP3 PUSH20 0xFFFFFFFFFFFFFFFFFFFFFFFFFFFFFFFFFFFFFFFF AND SWAP2 SWAP1 DUP10 DUP12 DUP10 TIMESTAMP PUSH2 0x200C JUMP JUMPDEST PUSH1 0x1 DUP7 ADD DUP1 SLOAD PUSH32 0xFFFFFFFFFFFFFFFFFFFFFFFF0000000000000000000000000000000000000000 DUP2 AND PUSH20 0xFFFFFFFFFFFFFFFFFFFFFFFFFFFFFFFFFFFFFFFF SWAP2 DUP3 AND DUP5 ADD DUP3 AND OR SWAP1 SWAP2 SSTORE DUP7 SLOAD DUP4 SWAP1 SUB DUP8 SSTORE DUP13 MLOAD DUP2 AND PUSH1 0x0 SWAP1 DUP2 MSTORE PUSH1 0x3 PUSH1 0x20 SWAP1 DUP2 MSTORE PUSH1 0x40 DUP1 DUP4 KECCAK256 DUP15 MLOAD SWAP1 SWAP5 AND DUP4 MSTORE SWAP3 DUP2 MSTORE DUP3 DUP3 KECCAK256 DUP1 SLOAD DUP7 ADD SWAP1 SSTORE DUP14 DUP3 MSTORE PUSH1 0x2 DUP2 MSTORE DUP3 DUP3 KECCAK256 DUP13 DUP4 MSTORE SWAP1 MSTORE SWAP1 DUP2 KECCAK256 SWAP1 DUP2 SSTORE SWAP2 SWAP4 POP SWAP2 POP PUSH12 0xFFFFFFFFFFFFFFFFFFFFFFFF PUSH16 0xFFFFFFFFFFFFFFFFFFFFFFFFFFFFFFFF DUP8 AND LT PUSH2 0x192A JUMPI PUSH1 0x1 DUP2 ADD DUP1 SLOAD PUSH32 0xFFFFFFFFFFFFFFFFFFFFFFFFFFFFFFFF00000000000000000000000000000000 AND SWAP1 SSTORE JUMPDEST PUSH1 0x40 MLOAD DUP9 SWAP1 DUP12 SWAP1 PUSH32 0xE1BA67E807AE0EFA0A9549F9520DDC15C27F0A4DAE2BC045E800CA66A940778F SWAP1 PUSH1 0x0 SWAP1 LOG3 POP POP POP POP POP POP POP POP POP POP POP JUMP JUMPDEST DUP2 PUSH1 0x40 ADD MLOAD TIMESTAMP LT ISZERO PUSH2 0x19A2 JUMPI PUSH1 0x40 MLOAD PUSH32 0x8C379A000000000000000000000000000000000000000000000000000000000 DUP2 MSTORE PUSH1 0x4 ADD PUSH2 0x444 SWAP1 PUSH2 0x34B1 JUMP JUMPDEST DUP2 PUSH1 0x60 ADD MLOAD TIMESTAMP LT PUSH2 0x19DF JUMPI PUSH1 0x40 MLOAD PUSH32 0x8C379A000000000000000000000000000000000000000000000000000000000 DUP2 MSTORE PUSH1 0x4 ADD PUSH2 0x444 SWAP1 PUSH2 0x3236 JUMP JUMPDEST PUSH1 0x0 PUSH2 0x19EA DUP4 PUSH2 0x1F55 JUMP JUMPDEST PUSH1 0x0 DUP2 DUP2 MSTORE PUSH1 0x20 DUP2 SWAP1 MSTORE PUSH1 0x40 SWAP1 KECCAK256 SLOAD SWAP1 SWAP2 POP PUSH2 0x1A32 JUMPI PUSH1 0x40 MLOAD PUSH32 0x8C379A000000000000000000000000000000000000000000000000000000000 DUP2 MSTORE PUSH1 0x4 ADD PUSH2 0x444 SWAP1 PUSH2 0x33D1 JUMP JUMPDEST PUSH1 0x0 DUP3 DUP2 MSTORE PUSH1 0x2 PUSH1 0x20 SWAP1 DUP2 MSTORE PUSH1 0x40 DUP1 DUP4 KECCAK256 DUP5 DUP5 MSTORE SWAP1 SWAP2 MSTORE SWAP1 KECCAK256 SLOAD PUSH21 0x10000000000000000000000000000000000000000 SWAP1 DIV PUSH12 0xFFFFFFFFFFFFFFFFFFFFFFFF AND ISZERO PUSH2 0x1AA9 JUMPI PUSH1 0x40 MLOAD PUSH32 0x8C379A000000000000000000000000000000000000000000000000000000000 DUP2 MSTORE PUSH1 0x4 ADD PUSH2 0x444 SWAP1 PUSH2 0x31D9 JUMP JUMPDEST PUSH1 0x0 DUP1 PUSH1 0x0 DUP1 PUSH2 0x1AFA PUSH32 0x0 PUSH32 0x0 DUP9 PUSH2 0x208E JUMP JUMPDEST SWAP4 POP SWAP4 POP SWAP4 POP SWAP4 POP DUP7 PUSH1 0x20 ADD MLOAD PUSH20 0xFFFFFFFFFFFFFFFFFFFFFFFFFFFFFFFFFFFFFFFF AND DUP5 PUSH20 0xFFFFFFFFFFFFFFFFFFFFFFFFFFFFFFFFFFFFFFFF AND EQ PUSH2 0x1B6B JUMPI PUSH1 0x40 MLOAD PUSH32 0x8C379A000000000000000000000000000000000000000000000000000000000 DUP2 MSTORE PUSH1 0x4 ADD PUSH2 0x444 SWAP1 PUSH2 0x350E JUMP JUMPDEST PUSH1 0x0 DUP2 PUSH16 0xFFFFFFFFFFFFFFFFFFFFFFFFFFFFFFFF AND GT PUSH2 0x1BB7 JUMPI PUSH1 0x40 MLOAD PUSH32 0x8C379A000000000000000000000000000000000000000000000000000000000 DUP2 MSTORE PUSH1 0x4 ADD PUSH2 0x444 SWAP1 PUSH2 0x3373 JUMP JUMPDEST PUSH1 0x0 DUP7 DUP2 MSTORE PUSH1 0x1 PUSH1 0x20 DUP2 DUP2 MSTORE PUSH1 0x40 DUP1 DUP5 KECCAK256 DUP1 SLOAD PUSH6 0xFFFFFFFFFFFF PUSH21 0x10000000000000000000000000000000000000000 DUP1 DUP4 DIV DUP3 AND DUP8 ADD SWAP1 SWAP2 AND DUP2 MUL PUSH32 0xFFFFFFFFFFFF000000000000FFFFFFFFFFFFFFFFFFFFFFFFFFFFFFFFFFFFFFFF SWAP1 SWAP3 AND SWAP2 SWAP1 SWAP2 OR SWAP1 SWAP2 SSTORE DUP10 DUP6 MSTORE SWAP2 DUP5 SWAP1 MSTORE DUP1 DUP5 KECCAK256 DUP4 ADD DUP1 SLOAD PUSH12 0xFFFFFFFFFFFFFFFFFFFFFFFF DUP5 DUP3 DIV DUP2 AND SWAP1 SWAP6 ADD SWAP1 SWAP5 AND SWAP1 SWAP3 MUL PUSH20 0xFFFFFFFFFFFFFFFFFFFFFFFFFFFFFFFFFFFFFFFF SWAP4 DUP5 AND OR SWAP1 SWAP2 SSTORE MLOAD PUSH32 0xA38807F200000000000000000000000000000000000000000000000000000000 DUP2 MSTORE SWAP1 DUP7 AND SWAP1 PUSH4 0xA38807F2 SWAP1 PUSH2 0x1CA1 SWAP1 DUP8 SWAP1 DUP8 SWAP1 PUSH1 0x4 ADD PUSH2 0x2F12 JUMP JUMPDEST PUSH1 0x60 PUSH1 0x40 MLOAD DUP1 DUP4 SUB DUP2 DUP7 DUP1 EXTCODESIZE ISZERO DUP1 ISZERO PUSH2 0x1CB9 JUMPI PUSH1 0x0 DUP1 REVERT JUMPDEST POP GAS STATICCALL ISZERO DUP1 ISZERO PUSH2 0x1CCD JUMPI RETURNDATASIZE PUSH1 0x0 DUP1 RETURNDATACOPY RETURNDATASIZE PUSH1 0x0 REVERT JUMPDEST POP POP POP POP PUSH1 0x40 MLOAD RETURNDATASIZE PUSH1 0x1F NOT PUSH1 0x1F DUP3 ADD AND DUP3 ADD DUP1 PUSH1 0x40 MSTORE POP DUP2 ADD SWAP1 PUSH2 0x1CF1 SWAP2 SWAP1 PUSH2 0x2A96 JUMP JUMPDEST POP SWAP2 POP POP PUSH12 0xFFFFFFFFFFFFFFFFFFFFFFFF PUSH16 0xFFFFFFFFFFFFFFFFFFFFFFFFFFFFFFFF DUP4 AND LT PUSH2 0x1E0A JUMPI PUSH1 0x40 DUP1 MLOAD PUSH1 0x60 DUP2 ADD DUP3 MSTORE PUSH20 0xFFFFFFFFFFFFFFFFFFFFFFFFFFFFFFFFFFFFFFFF DUP1 DUP5 AND DUP3 MSTORE PUSH12 0xFFFFFFFFFFFFFFFFFFFFFFFF PUSH1 0x20 DUP1 DUP5 ADD DUP3 DUP2 MSTORE PUSH16 0xFFFFFFFFFFFFFFFFFFFFFFFFFFFFFFFF DUP1 DUP10 AND DUP7 DUP9 ADD SWAP1 DUP2 MSTORE PUSH1 0x0 DUP16 DUP2 MSTORE PUSH1 0x2 DUP6 MSTORE DUP9 DUP2 KECCAK256 DUP16 DUP3 MSTORE SWAP1 SWAP5 MSTORE SWAP7 SWAP1 SWAP3 KECCAK256 SWAP5 MLOAD DUP6 SLOAD SWAP2 MLOAD SWAP1 SWAP4 AND PUSH21 0x10000000000000000000000000000000000000000 MUL SWAP3 DUP5 AND PUSH32 0xFFFFFFFFFFFFFFFFFFFFFFFF0000000000000000000000000000000000000000 SWAP1 SWAP2 AND OR SWAP1 SWAP3 AND OR DUP3 SSTORE SWAP2 MLOAD PUSH1 0x1 SWAP1 SWAP2 ADD DUP1 SLOAD SWAP2 SWAP1 SWAP3 AND PUSH32 0xFFFFFFFFFFFFFFFFFFFFFFFFFFFFFFFF00000000000000000000000000000000 SWAP1 SWAP2 AND OR SWAP1 SSTORE PUSH2 0x1E8E JUMP JUMPDEST PUSH1 0x0 DUP8 DUP2 MSTORE PUSH1 0x2 PUSH1 0x20 SWAP1 DUP2 MSTORE PUSH1 0x40 DUP1 DUP4 KECCAK256 DUP10 DUP5 MSTORE SWAP1 SWAP2 MSTORE SWAP1 KECCAK256 DUP1 SLOAD PUSH32 0xFFFFFFFFFFFFFFFFFFFFFFFF0000000000000000000000000000000000000000 AND PUSH20 0xFFFFFFFFFFFFFFFFFFFFFFFFFFFFFFFFFFFFFFFF DUP4 DUP2 AND SWAP2 SWAP1 SWAP2 OR AND PUSH21 0x10000000000000000000000000000000000000000 PUSH12 0xFFFFFFFFFFFFFFFFFFFFFFFF DUP6 AND MUL OR SWAP1 SSTORE JUMPDEST DUP6 DUP8 PUSH32 0x3FE90CCD0A34E28F2B4B7A1E8323415ED9DD595F4EEC5DFD461D18C2DF336DBD DUP5 PUSH1 0x40 MLOAD PUSH2 0x1EBF SWAP2 SWAP1 PUSH2 0x3974 JUMP JUMPDEST PUSH1 0x40 MLOAD DUP1 SWAP2 SUB SWAP1 LOG3 POP POP POP POP POP POP POP POP JUMP JUMPDEST PUSH2 0x1EF0 DUP4 PUSH20 0xFFFFFFFFFFFFFFFFFFFFFFFFFFFFFFFFFFFFFFFF AND PUSH2 0x2197 JUMP JUMPDEST PUSH2 0x1F45 JUMPI PUSH1 0x40 MLOAD PUSH32 0x8C379A000000000000000000000000000000000000000000000000000000000 DUP2 MSTORE PUSH1 0x4 ADD DUP1 DUP1 PUSH1 0x20 ADD DUP3 DUP2 SUB DUP3 MSTORE PUSH1 0x3A DUP2 MSTORE PUSH1 0x20 ADD DUP1 PUSH2 0x3B81 PUSH1 0x3A SWAP2 CODECOPY PUSH1 0x40 ADD SWAP2 POP POP PUSH1 0x40 MLOAD DUP1 SWAP2 SUB SWAP1 REVERT JUMPDEST PUSH2 0x1F50 DUP4 DUP4 DUP4 PUSH2 0x219D JUMP JUMPDEST POP POP POP JUMP JUMPDEST PUSH1 0x0 DUP2 PUSH1 0x40 MLOAD PUSH1 0x20 ADD PUSH2 0x1F68 SWAP2 SWAP1 PUSH2 0x3924 JUMP JUMPDEST PUSH1 0x40 MLOAD PUSH1 0x20 DUP2 DUP4 SUB SUB DUP2 MSTORE SWAP1 PUSH1 0x40 MSTORE DUP1 MLOAD SWAP1 PUSH1 0x20 ADD KECCAK256 SWAP1 POP JUMPDEST SWAP2 SWAP1 POP JUMP JUMPDEST PUSH2 0x1FA5 DUP5 PUSH20 0xFFFFFFFFFFFFFFFFFFFFFFFFFFFFFFFFFFFFFFFF AND PUSH2 0x2197 JUMP JUMPDEST PUSH2 0x1FFA JUMPI PUSH1 0x40 MLOAD PUSH32 0x8C379A000000000000000000000000000000000000000000000000000000000 DUP2 MSTORE PUSH1 0x4 ADD DUP1 DUP1 PUSH1 0x20 ADD DUP3 DUP2 SUB DUP3 MSTORE PUSH1 0x3E DUP2 MSTORE PUSH1 0x20 ADD DUP1 PUSH2 0x3BBB PUSH1 0x3E SWAP2 CODECOPY PUSH1 0x40 ADD SWAP2 POP POP PUSH1 0x40 MLOAD DUP1 SWAP2 SUB SWAP1 REVERT JUMPDEST PUSH2 0x2006 DUP5 DUP5 DUP5 DUP5 PUSH2 0x2379 JUMP JUMPDEST POP POP POP POP JUMP JUMPDEST PUSH1 0x0 DUP1 DUP8 DUP4 LT ISZERO PUSH2 0x2019 JUMPI INVALID JUMPDEST POP DUP4 DUP4 SUB PUSH16 0xFFFFFFFFFFFFFFFFFFFFFFFFFFFFFFFF DUP7 AND MUL PUSH1 0x0 PUSH20 0xFFFFFFFFFFFFFFFFFFFFFFFFFFFFFFFFFFFFFFFF DUP11 AND PUSH1 0x80 DUP11 PUSH2 0x2057 DUP12 DUP9 PUSH2 0x255E JUMP JUMPDEST SUB SWAP1 SHL SUB SWAP1 POP PUSH2 0x207E DUP12 DUP4 PUSH20 0xFFFFFFFFFFFFFFFFFFFFFFFFFFFFFFFFFFFFFFFF AND DUP4 PUSH2 0x2577 JUMP JUMPDEST SWAP3 POP POP SWAP9 POP SWAP9 SWAP7 POP POP POP POP POP POP POP JUMP JUMPDEST PUSH1 0x0 DUP1 PUSH1 0x0 DUP1 PUSH1 0x0 DUP1 PUSH1 0x0 DUP9 PUSH20 0xFFFFFFFFFFFFFFFFFFFFFFFFFFFFFFFFFFFFFFFF AND PUSH4 0x99FBAB88 DUP10 PUSH1 0x40 MLOAD DUP3 PUSH4 0xFFFFFFFF AND PUSH1 0xE0 SHL DUP2 MSTORE PUSH1 0x4 ADD DUP1 DUP3 DUP2 MSTORE PUSH1 0x20 ADD SWAP2 POP POP PUSH2 0x180 PUSH1 0x40 MLOAD DUP1 DUP4 SUB DUP2 DUP7 DUP1 EXTCODESIZE ISZERO DUP1 ISZERO PUSH2 0x20EB JUMPI PUSH1 0x0 DUP1 REVERT JUMPDEST POP GAS STATICCALL ISZERO DUP1 ISZERO PUSH2 0x20FF JUMPI RETURNDATASIZE PUSH1 0x0 DUP1 RETURNDATACOPY RETURNDATASIZE PUSH1 0x0 REVERT JUMPDEST POP POP POP POP PUSH1 0x40 MLOAD RETURNDATASIZE PUSH2 0x180 DUP2 LT ISZERO PUSH2 0x2116 JUMPI PUSH1 0x0 DUP1 REVERT JUMPDEST POP PUSH1 0x40 DUP1 DUP3 ADD MLOAD PUSH1 0x60 DUP1 DUP5 ADD MLOAD PUSH1 0x80 DUP6 ADD MLOAD PUSH1 0xA0 DUP7 ADD MLOAD PUSH1 0xC0 DUP8 ADD MLOAD PUSH1 0xE0 SWAP1 SWAP8 ADD MLOAD DUP7 MLOAD SWAP5 DUP6 ADD DUP8 MSTORE PUSH20 0xFFFFFFFFFFFFFFFFFFFFFFFFFFFFFFFFFFFFFFFF DUP1 DUP8 AND DUP7 MSTORE DUP5 AND PUSH1 0x20 DUP7 ADD MSTORE PUSH3 0xFFFFFF DUP4 AND SWAP7 DUP6 ADD SWAP7 SWAP1 SWAP7 MSTORE SWAP12 POP SWAP5 SWAP10 POP SWAP3 SWAP8 POP SWAP1 SWAP6 POP SWAP1 SWAP4 POP SWAP1 SWAP2 POP PUSH2 0x2189 SWAP1 DUP12 SWAP1 PUSH2 0x2644 JUMP JUMPDEST SWAP7 POP POP POP POP SWAP4 POP SWAP4 POP SWAP4 POP SWAP4 JUMP JUMPDEST EXTCODESIZE ISZERO ISZERO SWAP1 JUMP JUMPDEST PUSH1 0x40 DUP1 MLOAD PUSH20 0xFFFFFFFFFFFFFFFFFFFFFFFFFFFFFFFFFFFFFFFF DUP5 DUP2 AND PUSH1 0x24 DUP4 ADD MSTORE PUSH1 0x44 DUP1 DUP4 ADD DUP6 SWAP1 MSTORE DUP4 MLOAD DUP1 DUP5 SUB SWAP1 SWAP2 ADD DUP2 MSTORE PUSH1 0x64 SWAP1 SWAP3 ADD DUP4 MSTORE PUSH1 0x20 DUP3 ADD DUP1 MLOAD PUSH28 0xFFFFFFFFFFFFFFFFFFFFFFFFFFFFFFFFFFFFFFFFFFFFFFFFFFFFFFFF AND PUSH32 0xA9059CBB00000000000000000000000000000000000000000000000000000000 OR DUP2 MSTORE SWAP3 MLOAD DUP3 MLOAD PUSH1 0x0 SWAP5 DUP6 SWAP5 SWAP4 DUP10 AND SWAP4 SWAP3 SWAP2 DUP3 SWAP2 SWAP1 DUP1 DUP4 DUP4 JUMPDEST PUSH1 0x20 DUP4 LT PUSH2 0x2272 JUMPI DUP1 MLOAD DUP3 MSTORE PUSH32 0xFFFFFFFFFFFFFFFFFFFFFFFFFFFFFFFFFFFFFFFFFFFFFFFFFFFFFFFFFFFFFFE0 SWAP1 SWAP3 ADD SWAP2 PUSH1 0x20 SWAP2 DUP3 ADD SWAP2 ADD PUSH2 0x2235 JUMP JUMPDEST PUSH1 0x1 DUP4 PUSH1 0x20 SUB PUSH2 0x100 EXP SUB DUP1 NOT DUP3 MLOAD AND DUP2 DUP5 MLOAD AND DUP1 DUP3 OR DUP6 MSTORE POP POP POP POP POP POP SWAP1 POP ADD SWAP2 POP POP PUSH1 0x0 PUSH1 0x40 MLOAD DUP1 DUP4 SUB DUP2 PUSH1 0x0 DUP7 GAS CALL SWAP2 POP POP RETURNDATASIZE DUP1 PUSH1 0x0 DUP2 EQ PUSH2 0x22D4 JUMPI PUSH1 0x40 MLOAD SWAP2 POP PUSH1 0x1F NOT PUSH1 0x3F RETURNDATASIZE ADD AND DUP3 ADD PUSH1 0x40 MSTORE RETURNDATASIZE DUP3 MSTORE RETURNDATASIZE PUSH1 0x0 PUSH1 0x20 DUP5 ADD RETURNDATACOPY PUSH2 0x22D9 JUMP JUMPDEST PUSH1 0x60 SWAP2 POP JUMPDEST POP SWAP2 POP SWAP2 POP DUP2 DUP1 ISZERO PUSH2 0x2307 JUMPI POP DUP1 MLOAD ISZERO DUP1 PUSH2 0x2307 JUMPI POP DUP1 DUP1 PUSH1 0x20 ADD SWAP1 MLOAD PUSH1 0x20 DUP2 LT ISZERO PUSH2 0x2304 JUMPI PUSH1 0x0 DUP1 REVERT JUMPDEST POP MLOAD JUMPDEST PUSH2 0x2372 JUMPI PUSH1 0x40 DUP1 MLOAD PUSH32 0x8C379A000000000000000000000000000000000000000000000000000000000 DUP2 MSTORE PUSH1 0x20 PUSH1 0x4 DUP3 ADD MSTORE PUSH1 0x2 PUSH1 0x24 DUP3 ADD MSTORE PUSH32 0x5354000000000000000000000000000000000000000000000000000000000000 PUSH1 0x44 DUP3 ADD MSTORE SWAP1 MLOAD SWAP1 DUP2 SWAP1 SUB PUSH1 0x64 ADD SWAP1 REVERT JUMPDEST POP POP POP POP POP JUMP JUMPDEST PUSH1 0x40 DUP1 MLOAD PUSH20 0xFFFFFFFFFFFFFFFFFFFFFFFFFFFFFFFFFFFFFFFF DUP6 DUP2 AND PUSH1 0x24 DUP4 ADD MSTORE DUP5 DUP2 AND PUSH1 0x44 DUP4 ADD MSTORE PUSH1 0x64 DUP1 DUP4 ADD DUP6 SWAP1 MSTORE DUP4 MLOAD DUP1 DUP5 SUB SWAP1 SWAP2 ADD DUP2 MSTORE PUSH1 0x84 SWAP1 SWAP3 ADD DUP4 MSTORE PUSH1 0x20 DUP3 ADD DUP1 MLOAD PUSH28 0xFFFFFFFFFFFFFFFFFFFFFFFFFFFFFFFFFFFFFFFFFFFFFFFFFFFFFFFF AND PUSH32 0x23B872DD00000000000000000000000000000000000000000000000000000000 OR DUP2 MSTORE SWAP3 MLOAD DUP3 MLOAD PUSH1 0x0 SWAP5 DUP6 SWAP5 SWAP4 DUP11 AND SWAP4 SWAP3 SWAP2 DUP3 SWAP2 SWAP1 DUP1 DUP4 DUP4 JUMPDEST PUSH1 0x20 DUP4 LT PUSH2 0x2456 JUMPI DUP1 MLOAD DUP3 MSTORE PUSH32 0xFFFFFFFFFFFFFFFFFFFFFFFFFFFFFFFFFFFFFFFFFFFFFFFFFFFFFFFFFFFFFFE0 SWAP1 SWAP3 ADD SWAP2 PUSH1 0x20 SWAP2 DUP3 ADD SWAP2 ADD PUSH2 0x2419 JUMP JUMPDEST PUSH1 0x1 DUP4 PUSH1 0x20 SUB PUSH2 0x100 EXP SUB DUP1 NOT DUP3 MLOAD AND DUP2 DUP5 MLOAD AND DUP1 DUP3 OR DUP6 MSTORE POP POP POP POP POP POP SWAP1 POP ADD SWAP2 POP POP PUSH1 0x0 PUSH1 0x40 MLOAD DUP1 DUP4 SUB DUP2 PUSH1 0x0 DUP7 GAS CALL SWAP2 POP POP RETURNDATASIZE DUP1 PUSH1 0x0 DUP2 EQ PUSH2 0x24B8 JUMPI PUSH1 0x40 MLOAD SWAP2 POP PUSH1 0x1F NOT PUSH1 0x3F RETURNDATASIZE ADD AND DUP3 ADD PUSH1 0x40 MSTORE RETURNDATASIZE DUP3 MSTORE RETURNDATASIZE PUSH1 0x0 PUSH1 0x20 DUP5 ADD RETURNDATACOPY PUSH2 0x24BD JUMP JUMPDEST PUSH1 0x60 SWAP2 POP JUMPDEST POP SWAP2 POP SWAP2 POP DUP2 DUP1 ISZERO PUSH2 0x24EB JUMPI POP DUP1 MLOAD ISZERO DUP1 PUSH2 0x24EB JUMPI POP DUP1 DUP1 PUSH1 0x20 ADD SWAP1 MLOAD PUSH1 0x20 DUP2 LT ISZERO PUSH2 0x24E8 JUMPI PUSH1 0x0 DUP1 REVERT JUMPDEST POP MLOAD JUMPDEST PUSH2 0x2556 JUMPI PUSH1 0x40 DUP1 MLOAD PUSH32 0x8C379A000000000000000000000000000000000000000000000000000000000 DUP2 MSTORE PUSH1 0x20 PUSH1 0x4 DUP3 ADD MSTORE PUSH1 0x3 PUSH1 0x24 DUP3 ADD MSTORE PUSH32 0x5354460000000000000000000000000000000000000000000000000000000000 PUSH1 0x44 DUP3 ADD MSTORE SWAP1 MLOAD SWAP1 DUP2 SWAP1 SUB PUSH1 0x64 ADD SWAP1 REVERT JUMPDEST POP POP POP POP POP POP JUMP JUMPDEST PUSH1 0x0 DUP2 DUP4 LT ISZERO PUSH2 0x256E JUMPI DUP2 PUSH2 0x2570 JUMP JUMPDEST DUP3 JUMPDEST SWAP4 SWAP3 POP POP POP JUMP JUMPDEST PUSH1 0x0 DUP1 DUP1 PUSH32 0xFFFFFFFFFFFFFFFFFFFFFFFFFFFFFFFFFFFFFFFFFFFFFFFFFFFFFFFFFFFFFFFF DUP6 DUP8 MULMOD DUP7 DUP7 MUL SWAP3 POP DUP3 DUP2 LT SWAP1 DUP4 SWAP1 SUB SUB SWAP1 POP DUP1 PUSH2 0x25CB JUMPI PUSH1 0x0 DUP5 GT PUSH2 0x25C0 JUMPI PUSH1 0x0 DUP1 REVERT JUMPDEST POP DUP3 SWAP1 DIV SWAP1 POP PUSH2 0x2570 JUMP JUMPDEST DUP1 DUP5 GT PUSH2 0x25D7 JUMPI PUSH1 0x0 DUP1 REVERT JUMPDEST PUSH1 0x0 DUP5 DUP7 DUP9 MULMOD PUSH1 0x0 DUP7 DUP2 SUB DUP8 AND SWAP7 DUP8 SWAP1 DIV SWAP7 PUSH1 0x2 PUSH1 0x3 DUP10 MUL DUP2 XOR DUP1 DUP11 MUL DUP3 SUB MUL DUP1 DUP11 MUL DUP3 SUB MUL DUP1 DUP11 MUL DUP3 SUB MUL DUP1 DUP11 MUL DUP3 SUB MUL DUP1 DUP11 MUL DUP3 SUB MUL DUP1 DUP11 MUL SWAP1 SWAP2 SUB MUL SWAP2 DUP2 SWAP1 SUB DUP2 SWAP1 DIV PUSH1 0x1 ADD DUP7 DUP5 GT SWAP1 SWAP6 SUB SWAP5 SWAP1 SWAP5 MUL SWAP2 SWAP1 SWAP5 SUB SWAP3 SWAP1 SWAP3 DIV SWAP2 SWAP1 SWAP2 OR SWAP2 SWAP1 SWAP2 MUL SWAP2 POP POP SWAP4 SWAP3 POP POP POP JUMP JUMPDEST PUSH1 0x0 DUP2 PUSH1 0x20 ADD MLOAD PUSH20 0xFFFFFFFFFFFFFFFFFFFFFFFFFFFFFFFFFFFFFFFF AND DUP3 PUSH1 0x0 ADD MLOAD PUSH20 0xFFFFFFFFFFFFFFFFFFFFFFFFFFFFFFFFFFFFFFFF AND LT PUSH2 0x2686 JUMPI PUSH1 0x0 DUP1 REVERT JUMPDEST POP DUP1 MLOAD PUSH1 0x20 DUP1 DUP4 ADD MLOAD PUSH1 0x40 SWAP4 DUP5 ADD MLOAD DUP5 MLOAD PUSH20 0xFFFFFFFFFFFFFFFFFFFFFFFFFFFFFFFFFFFFFFFF SWAP5 DUP6 AND DUP2 DUP6 ADD MSTORE SWAP4 SWAP1 SWAP2 AND DUP4 DUP6 ADD MSTORE PUSH3 0xFFFFFF AND PUSH1 0x60 DUP1 DUP5 ADD SWAP2 SWAP1 SWAP2 MSTORE DUP4 MLOAD DUP1 DUP5 SUB DUP3 ADD DUP2 MSTORE PUSH1 0x80 DUP5 ADD DUP6 MSTORE DUP1 MLOAD SWAP1 DUP4 ADD KECCAK256 PUSH32 0xFF00000000000000000000000000000000000000000000000000000000000000 PUSH1 0xA0 DUP6 ADD MSTORE SWAP5 SWAP1 SHL PUSH32 0xFFFFFFFFFFFFFFFFFFFFFFFFFFFFFFFFFFFFFFFF000000000000000000000000 AND PUSH1 0xA1 DUP4 ADD MSTORE PUSH1 0xB5 DUP3 ADD SWAP4 SWAP1 SWAP4 MSTORE PUSH32 0xE34F199B19B2B4F47F68442619D555527D244F78A3297EA89325F843F87B8B54 PUSH1 0xD5 DUP1 DUP4 ADD SWAP2 SWAP1 SWAP2 MSTORE DUP3 MLOAD DUP1 DUP4 SUB SWAP1 SWAP2 ADD DUP2 MSTORE PUSH1 0xF5 SWAP1 SWAP2 ADD SWAP1 SWAP2 MSTORE DUP1 MLOAD SWAP2 ADD KECCAK256 SWAP1 JUMP JUMPDEST DUP1 MLOAD PUSH2 0x1F81 DUP2 PUSH2 0x3B5B JUMP JUMPDEST DUP1 MLOAD PUSH1 0x2 DUP2 SWAP1 SIGNEXTEND DUP2 EQ PUSH2 0x1F81 JUMPI PUSH1 0x0 DUP1 REVERT JUMPDEST PUSH1 0x0 PUSH1 0xA0 DUP3 DUP5 SUB SLT ISZERO PUSH2 0x27A8 JUMPI DUP1 DUP2 REVERT JUMPDEST PUSH1 0x40 MLOAD PUSH1 0xA0 DUP2 ADD DUP2 DUP2 LT PUSH8 0xFFFFFFFFFFFFFFFF DUP3 GT OR ISZERO PUSH2 0x27C5 JUMPI INVALID JUMPDEST PUSH1 0x40 MSTORE SWAP1 POP DUP1 DUP3 CALLDATALOAD PUSH2 0x27D6 DUP2 PUSH2 0x3B5B JUMP JUMPDEST DUP2 MSTORE PUSH1 0x20 DUP4 ADD CALLDATALOAD PUSH2 0x27E6 DUP2 PUSH2 0x3B5B JUMP JUMPDEST DUP1 PUSH1 0x20 DUP4 ADD MSTORE POP PUSH1 0x40 DUP4 ADD CALLDATALOAD PUSH1 0x40 DUP3 ADD MSTORE PUSH1 0x60 DUP4 ADD CALLDATALOAD PUSH1 0x60 DUP3 ADD MSTORE PUSH1 0x80 DUP4 ADD CALLDATALOAD PUSH2 0x280F DUP2 PUSH2 0x3B5B JUMP JUMPDEST PUSH1 0x80 SWAP2 SWAP1 SWAP2 ADD MSTORE SWAP3 SWAP2 POP POP JUMP JUMPDEST DUP1 MLOAD PUSH16 0xFFFFFFFFFFFFFFFFFFFFFFFFFFFFFFFF DUP2 AND DUP2 EQ PUSH2 0x1F81 JUMPI PUSH1 0x0 DUP1 REVERT JUMPDEST DUP1 MLOAD PUSH3 0xFFFFFF DUP2 AND DUP2 EQ PUSH2 0x1F81 JUMPI PUSH1 0x0 DUP1 REVERT JUMPDEST PUSH1 0x0 DUP1 PUSH1 0x0 DUP1 PUSH1 0x0 PUSH1 0x80 DUP7 DUP9 SUB SLT ISZERO PUSH2 0x2866 JUMPI DUP1 DUP2 REVERT JUMPDEST DUP6 CALLDATALOAD PUSH2 0x2871 DUP2 PUSH2 0x3B5B JUMP JUMPDEST SWAP5 POP PUSH1 0x20 DUP7 ADD CALLDATALOAD PUSH2 0x2881 DUP2 PUSH2 0x3B5B JUMP JUMPDEST SWAP4 POP PUSH1 0x40 DUP7 ADD CALLDATALOAD SWAP3 POP PUSH1 0x60 DUP7 ADD CALLDATALOAD PUSH8 0xFFFFFFFFFFFFFFFF DUP1 DUP3 GT ISZERO PUSH2 0x28A4 JUMPI DUP3 DUP4 REVERT JUMPDEST DUP2 DUP9 ADD SWAP2 POP DUP9 PUSH1 0x1F DUP4 ADD SLT PUSH2 0x28B7 JUMPI DUP3 DUP4 REVERT JUMPDEST DUP2 CALLDATALOAD DUP2 DUP2 GT ISZERO PUSH2 0x28C5 JUMPI DUP4 DUP5 REVERT JUMPDEST DUP10 PUSH1 0x20 DUP3 DUP6 ADD ADD GT ISZERO PUSH2 0x28D6 JUMPI DUP4 DUP5 REVERT JUMPDEST SWAP7 SWAP10 SWAP6 SWAP9 POP SWAP4 SWAP7 POP PUSH1 0x20 ADD SWAP5 SWAP4 SWAP3 POP POP POP JUMP JUMPDEST PUSH1 0x0 DUP1 PUSH1 0x20 DUP4 DUP6 SUB SLT ISZERO PUSH2 0x28FB JUMPI DUP2 DUP3 REVERT JUMPDEST DUP3 CALLDATALOAD PUSH8 0xFFFFFFFFFFFFFFFF DUP1 DUP3 GT ISZERO PUSH2 0x2912 JUMPI DUP4 DUP5 REVERT JUMPDEST DUP2 DUP6 ADD SWAP2 POP DUP6 PUSH1 0x1F DUP4 ADD SLT PUSH2 0x2925 JUMPI DUP4 DUP5 REVERT JUMPDEST DUP2 CALLDATALOAD DUP2 DUP2 GT ISZERO PUSH2 0x2933 JUMPI DUP5 DUP6 REVERT JUMPDEST DUP7 PUSH1 0x20 DUP1 DUP4 MUL DUP6 ADD ADD GT ISZERO PUSH2 0x2946 JUMPI DUP5 DUP6 REVERT JUMPDEST PUSH1 0x20 SWAP3 SWAP1 SWAP3 ADD SWAP7 SWAP2 SWAP6 POP SWAP1 SWAP4 POP POP POP POP JUMP JUMPDEST PUSH1 0x0 PUSH1 0x20 DUP1 DUP4 DUP6 SUB SLT ISZERO PUSH2 0x296A JUMPI DUP2 DUP3 REVERT JUMPDEST DUP3 CALLDATALOAD PUSH8 0xFFFFFFFFFFFFFFFF DUP1 DUP3 GT ISZERO PUSH2 0x2981 JUMPI DUP4 DUP5 REVERT JUMPDEST DUP2 DUP6 ADD SWAP2 POP DUP6 PUSH1 0x1F DUP4 ADD SLT PUSH2 0x2994 JUMPI DUP4 DUP5 REVERT JUMPDEST DUP2 CALLDATALOAD DUP2 DUP2 GT ISZERO PUSH2 0x29A0 JUMPI INVALID JUMPDEST PUSH2 0x29AD DUP5 DUP6 DUP4 MUL ADD PUSH2 0x3ACB JUMP JUMPDEST DUP2 DUP2 MSTORE DUP5 DUP2 ADD SWAP3 POP DUP4 DUP6 ADD PUSH1 0xA0 DUP1 DUP5 MUL DUP7 ADD DUP8 ADD DUP11 LT ISZERO PUSH2 0x29CC JUMPI DUP8 DUP9 REVERT JUMPDEST DUP8 SWAP6 POP JUMPDEST DUP4 DUP7 LT ISZERO PUSH2 0x29F8 JUMPI PUSH2 0x29E2 DUP11 DUP4 PUSH2 0x2797 JUMP JUMPDEST DUP6 MSTORE PUSH1 0x1 SWAP6 SWAP1 SWAP6 ADD SWAP5 SWAP4 DUP7 ADD SWAP4 SWAP1 DUP2 ADD SWAP1 PUSH2 0x29D0 JUMP JUMPDEST POP SWAP1 SWAP9 SWAP8 POP POP POP POP POP POP POP POP JUMP JUMPDEST PUSH1 0x0 PUSH1 0x20 DUP3 DUP5 SUB SLT ISZERO PUSH2 0x2A17 JUMPI DUP1 DUP2 REVERT JUMPDEST POP CALLDATALOAD SWAP2 SWAP1 POP JUMP JUMPDEST PUSH1 0x0 DUP1 PUSH1 0x40 DUP4 DUP6 SUB SLT ISZERO PUSH2 0x2A30 JUMPI DUP2 DUP3 REVERT JUMPDEST DUP3 CALLDATALOAD PUSH2 0x2A3B DUP2 PUSH2 0x3B5B JUMP JUMPDEST SWAP2 POP PUSH1 0x20 DUP4 ADD CALLDATALOAD PUSH2 0x2A4B DUP2 PUSH2 0x3B5B JUMP JUMPDEST DUP1 SWAP2 POP POP SWAP3 POP SWAP3 SWAP1 POP JUMP JUMPDEST PUSH1 0x0 DUP1 PUSH1 0x0 PUSH1 0x60 DUP5 DUP7 SUB SLT ISZERO PUSH2 0x2A6A JUMPI DUP1 DUP2 REVERT JUMPDEST DUP4 CALLDATALOAD PUSH2 0x2A75 DUP2 PUSH2 0x3B5B JUMP JUMPDEST SWAP3 POP PUSH1 0x20 DUP5 ADD CALLDATALOAD PUSH2 0x2A85 DUP2 PUSH2 0x3B5B JUMP JUMPDEST SWAP3 SWAP6 SWAP3 SWAP5 POP POP POP PUSH1 0x40 SWAP2 SWAP1 SWAP2 ADD CALLDATALOAD SWAP1 JUMP JUMPDEST PUSH1 0x0 DUP1 PUSH1 0x0 PUSH1 0x60 DUP5 DUP7 SUB SLT ISZERO PUSH2 0x2AAA JUMPI DUP1 DUP2 REVERT JUMPDEST DUP4 MLOAD DUP1 PUSH1 0x6 SIGNEXTEND DUP2 EQ PUSH2 0x2ABA JUMPI DUP2 DUP3 REVERT JUMPDEST PUSH1 0x20 DUP6 ADD MLOAD SWAP1 SWAP4 POP PUSH2 0x2ACB DUP2 PUSH2 0x3B5B JUMP JUMPDEST PUSH1 0x40 DUP6 ADD MLOAD SWAP1 SWAP3 POP PUSH4 0xFFFFFFFF DUP2 AND DUP2 EQ PUSH2 0x2AE4 JUMPI DUP2 DUP3 REVERT JUMPDEST DUP1 SWAP2 POP POP SWAP3 POP SWAP3 POP SWAP3 JUMP JUMPDEST PUSH1 0x0 PUSH1 0x20 DUP3 DUP5 SUB SLT ISZERO PUSH2 0x2B00 JUMPI DUP1 DUP2 REVERT JUMPDEST DUP2 MLOAD PUSH8 0xFFFFFFFFFFFFFFFF DUP2 GT ISZERO PUSH2 0x2B16 JUMPI DUP2 DUP3 REVERT JUMPDEST DUP3 ADD PUSH1 0x1F DUP2 ADD DUP5 SGT PUSH2 0x2B26 JUMPI DUP2 DUP3 REVERT JUMPDEST DUP1 MLOAD PUSH2 0x2B39 PUSH2 0x2B34 DUP3 PUSH2 0x3AEF JUMP JUMPDEST PUSH2 0x3ACB JUMP JUMPDEST DUP2 DUP2 MSTORE DUP6 PUSH1 0x20 DUP4 DUP6 ADD ADD GT ISZERO PUSH2 0x2B4D JUMPI DUP4 DUP5 REVERT JUMPDEST PUSH2 0x2B5E DUP3 PUSH1 0x20 DUP4 ADD PUSH1 0x20 DUP7 ADD PUSH2 0x3B2F JUMP JUMPDEST SWAP6 SWAP5 POP POP POP POP POP JUMP JUMPDEST PUSH1 0x0 PUSH1 0xA0 DUP3 DUP5 SUB SLT ISZERO PUSH2 0x2B78 JUMPI DUP1 DUP2 REVERT JUMPDEST PUSH2 0x2570 DUP4 DUP4 PUSH2 0x2797 JUMP JUMPDEST PUSH1 0x0 DUP1 PUSH1 0xC0 DUP4 DUP6 SUB SLT ISZERO PUSH2 0x2B94 JUMPI DUP2 DUP3 REVERT JUMPDEST PUSH2 0x2B9E DUP5 DUP5 PUSH2 0x2797 JUMP JUMPDEST SWAP5 PUSH1 0xA0 SWAP4 SWAP1 SWAP4 ADD CALLDATALOAD SWAP4 POP POP POP JUMP JUMPDEST PUSH1 0x0 DUP1 PUSH1 0x40 DUP4 DUP6 SUB SLT ISZERO PUSH2 0x2BBE JUMPI DUP2 DUP3 REVERT JUMPDEST DUP3 CALLDATALOAD SWAP2 POP PUSH1 0x20 DUP4 ADD CALLDATALOAD PUSH2 0x2A4B DUP2 PUSH2 0x3B5B JUMP JUMPDEST PUSH1 0x0 DUP1 PUSH1 0x0 PUSH1 0x60 DUP5 DUP7 SUB SLT ISZERO PUSH2 0x2BE4 JUMPI DUP1 DUP2 REVERT JUMPDEST DUP4 CALLDATALOAD SWAP3 POP PUSH1 0x20 DUP5 ADD CALLDATALOAD PUSH2 0x2BF6 DUP2 PUSH2 0x3B5B JUMP JUMPDEST SWAP2 POP PUSH1 0x40 DUP5 ADD CALLDATALOAD PUSH8 0xFFFFFFFFFFFFFFFF DUP2 GT ISZERO PUSH2 0x2C11 JUMPI DUP2 DUP3 REVERT JUMPDEST DUP5 ADD PUSH1 0x1F DUP2 ADD DUP7 SGT PUSH2 0x2C21 JUMPI DUP2 DUP3 REVERT JUMPDEST DUP1 CALLDATALOAD PUSH2 0x2C2F PUSH2 0x2B34 DUP3 PUSH2 0x3AEF JUMP JUMPDEST DUP2 DUP2 MSTORE DUP8 PUSH1 0x20 DUP4 DUP6 ADD ADD GT ISZERO PUSH2 0x2C43 JUMPI DUP4 DUP5 REVERT JUMPDEST DUP2 PUSH1 0x20 DUP5 ADD PUSH1 0x20 DUP4 ADD CALLDATACOPY DUP4 PUSH1 0x20 DUP4 DUP4 ADD ADD MSTORE DUP1 SWAP4 POP POP POP POP SWAP3 POP SWAP3 POP SWAP3 JUMP JUMPDEST PUSH1 0x0 DUP1 PUSH1 0x40 DUP4 DUP6 SUB SLT ISZERO PUSH2 0x2C74 JUMPI DUP2 DUP3 REVERT JUMPDEST POP POP DUP1 CALLDATALOAD SWAP3 PUSH1 0x20 SWAP1 SWAP2 ADD CALLDATALOAD SWAP2 POP JUMP JUMPDEST PUSH1 0x0 DUP1 PUSH1 0x0 DUP1 PUSH1 0x0 DUP1 PUSH1 0x0 DUP1 PUSH1 0x0 DUP1 PUSH1 0x0 DUP1 PUSH2 0x180 DUP14 DUP16 SUB SLT ISZERO PUSH2 0x2CA5 JUMPI DUP10 DUP11 REVERT JUMPDEST DUP13 MLOAD PUSH12 0xFFFFFFFFFFFFFFFFFFFFFFFF DUP2 AND DUP2 EQ PUSH2 0x2CC0 JUMPI DUP11 DUP12 REVERT JUMPDEST SWAP12 POP PUSH2 0x2CCE PUSH1 0x20 DUP15 ADD PUSH2 0x277A JUMP JUMPDEST SWAP11 POP PUSH2 0x2CDC PUSH1 0x40 DUP15 ADD PUSH2 0x277A JUMP JUMPDEST SWAP10 POP PUSH2 0x2CEA PUSH1 0x60 DUP15 ADD PUSH2 0x277A JUMP JUMPDEST SWAP9 POP PUSH2 0x2CF8 PUSH1 0x80 DUP15 ADD PUSH2 0x283C JUMP JUMPDEST SWAP8 POP PUSH2 0x2D06 PUSH1 0xA0 DUP15 ADD PUSH2 0x2785 JUMP JUMPDEST SWAP7 POP PUSH2 0x2D14 PUSH1 0xC0 DUP15 ADD PUSH2 0x2785 JUMP JUMPDEST SWAP6 POP PUSH2 0x2D22 PUSH1 0xE0 DUP15 ADD PUSH2 0x281C JUMP JUMPDEST SWAP5 POP PUSH2 0x100 DUP14 ADD MLOAD SWAP4 POP PUSH2 0x120 DUP14 ADD MLOAD SWAP3 POP PUSH2 0x2D41 PUSH2 0x140 DUP15 ADD PUSH2 0x281C JUMP JUMPDEST SWAP2 POP PUSH2 0x2D50 PUSH2 0x160 DUP15 ADD PUSH2 0x281C JUMP JUMPDEST SWAP1 POP SWAP3 SWAP6 SWAP9 SWAP12 POP SWAP3 SWAP6 SWAP9 SWAP12 POP SWAP3 SWAP6 SWAP9 SWAP12 JUMP JUMPDEST PUSH1 0x0 DUP2 MLOAD DUP1 DUP5 MSTORE PUSH2 0x2D7A DUP2 PUSH1 0x20 DUP7 ADD PUSH1 0x20 DUP7 ADD PUSH2 0x3B2F JUMP JUMPDEST PUSH1 0x1F ADD PUSH32 0xFFFFFFFFFFFFFFFFFFFFFFFFFFFFFFFFFFFFFFFFFFFFFFFFFFFFFFFFFFFFFFE0 AND SWAP3 SWAP1 SWAP3 ADD PUSH1 0x20 ADD SWAP3 SWAP2 POP POP JUMP JUMPDEST PUSH1 0x0 DUP3 DUP5 DUP4 CALLDATACOPY SWAP2 ADD SWAP1 DUP2 MSTORE SWAP2 SWAP1 POP JUMP JUMPDEST PUSH1 0x0 PUSH20 0xFFFFFFFFFFFFFFFFFFFFFFFFFFFFFFFFFFFFFFFF DUP1 DUP8 AND DUP4 MSTORE DUP1 DUP7 AND PUSH1 0x20 DUP5 ADD MSTORE POP DUP4 PUSH1 0x40 DUP4 ADD MSTORE PUSH1 0x80 PUSH1 0x60 DUP4 ADD MSTORE PUSH2 0x2DFB PUSH1 0x80 DUP4 ADD DUP5 PUSH2 0x2D62 JUMP JUMPDEST SWAP7 SWAP6 POP POP POP POP POP POP JUMP JUMPDEST PUSH20 0xFFFFFFFFFFFFFFFFFFFFFFFFFFFFFFFFFFFFFFFF SWAP5 SWAP1 SWAP5 AND DUP5 MSTORE PUSH6 0xFFFFFFFFFFFF SWAP3 SWAP1 SWAP3 AND PUSH1 0x20 DUP5 ADD MSTORE PUSH1 0x2 SWAP1 DUP2 SIGNEXTEND PUSH1 0x40 DUP5 ADD MSTORE SIGNEXTEND PUSH1 0x60 DUP3 ADD MSTORE PUSH1 0x80 ADD SWAP1 JUMP JUMPDEST PUSH1 0x0 PUSH1 0x20 DUP1 DUP4 ADD DUP2 DUP5 MSTORE DUP1 DUP6 MLOAD DUP1 DUP4 MSTORE PUSH1 0x40 DUP7 ADD SWAP2 POP PUSH1 0x40 DUP5 DUP3 MUL DUP8 ADD ADD SWAP3 POP DUP4 DUP8 ADD DUP6 JUMPDEST DUP3 DUP2 LT ISZERO PUSH2 0x2EB7 JUMPI PUSH32 0xFFFFFFFFFFFFFFFFFFFFFFFFFFFFFFFFFFFFFFFFFFFFFFFFFFFFFFFFFFFFFFC0 DUP9 DUP7 SUB ADD DUP5 MSTORE PUSH2 0x2EA5 DUP6 DUP4 MLOAD PUSH2 0x2D62 JUMP JUMPDEST SWAP5 POP SWAP3 DUP6 ADD SWAP3 SWAP1 DUP6 ADD SWAP1 PUSH1 0x1 ADD PUSH2 0x2E6B JUMP JUMPDEST POP SWAP3 SWAP8 SWAP7 POP POP POP POP POP POP POP JUMP JUMPDEST PUSH32 0xFFFFFFFF00000000000000000000000000000000000000000000000000000000 SWAP2 SWAP1 SWAP2 AND DUP2 MSTORE PUSH1 0x20 ADD SWAP1 JUMP JUMPDEST PUSH20 0xFFFFFFFFFFFFFFFFFFFFFFFFFFFFFFFFFFFFFFFF SWAP2 SWAP1 SWAP2 AND DUP2 MSTORE PUSH1 0x20 ADD SWAP1 JUMP JUMPDEST PUSH1 0x2 SWAP3 DUP4 SIGNEXTEND DUP2 MSTORE SWAP2 SIGNEXTEND PUSH1 0x20 DUP3 ADD MSTORE PUSH1 0x40 ADD SWAP1 JUMP JUMPDEST PUSH1 0x0 PUSH1 0x20 DUP3 MSTORE PUSH2 0x2570 PUSH1 0x20 DUP4 ADD DUP5 PUSH2 0x2D62 JUMP JUMPDEST PUSH1 0x20 DUP1 DUP3 MSTORE PUSH1 0x32 SWAP1 DUP3 ADD MSTORE PUSH32 0x556E697377617056335374616B65723A3A656E64496E63656E746976653A206E PUSH1 0x40 DUP3 ADD MSTORE PUSH32 0x6F20726566756E6420617661696C61626C650000000000000000000000000000 PUSH1 0x60 DUP3 ADD MSTORE PUSH1 0x80 ADD SWAP1 JUMP JUMPDEST PUSH1 0x20 DUP1 DUP3 MSTORE PUSH1 0x45 SWAP1 DUP3 ADD MSTORE PUSH32 0x556E697377617056335374616B65723A3A7472616E736665724465706F736974 PUSH1 0x40 DUP3 ADD MSTORE PUSH32 0x3A2063616E206F6E6C792062652063616C6C6564206279206465706F73697420 PUSH1 0x60 DUP3 ADD MSTORE PUSH32 0x6F776E6572000000000000000000000000000000000000000000000000000000 PUSH1 0x80 DUP3 ADD MSTORE PUSH1 0xA0 ADD SWAP1 JUMP JUMPDEST PUSH1 0x20 DUP1 DUP3 MSTORE PUSH1 0x34 SWAP1 DUP3 ADD MSTORE PUSH32 0x556E697377617056335374616B65723A3A676574526577617264496E666F3A20 PUSH1 0x40 DUP3 ADD MSTORE PUSH32 0x7374616B6520646F6573206E6F74206578697374000000000000000000000000 PUSH1 0x60 DUP3 ADD MSTORE PUSH1 0x80 ADD SWAP1 JUMP JUMPDEST PUSH1 0x20 DUP1 DUP3 MSTORE PUSH1 0x43 SWAP1 DUP3 ADD MSTORE PUSH32 0x556E697377617056335374616B65723A3A656E64496E63656E746976653A2063 PUSH1 0x40 DUP3 ADD MSTORE PUSH32 0x616E6E6F7420656E6420696E63656E74697665206265666F726520656E642074 PUSH1 0x60 DUP3 ADD MSTORE PUSH32 0x696D650000000000000000000000000000000000000000000000000000000000 PUSH1 0x80 DUP3 ADD MSTORE PUSH1 0xA0 ADD SWAP1 JUMP JUMPDEST PUSH1 0x20 DUP1 DUP3 MSTORE PUSH1 0x33 SWAP1 DUP3 ADD MSTORE PUSH32 0x556E697377617056335374616B65723A3A756E7374616B65546F6B656E3A2073 PUSH1 0x40 DUP3 ADD MSTORE PUSH32 0x74616B6520646F6573206E6F7420657869737400000000000000000000000000 PUSH1 0x60 DUP3 ADD MSTORE PUSH1 0x80 ADD SWAP1 JUMP JUMPDEST PUSH1 0x20 DUP1 DUP3 MSTORE PUSH1 0x42 SWAP1 DUP3 ADD MSTORE PUSH32 0x556E697377617056335374616B65723A3A7769746864726177546F6B656E3A20 PUSH1 0x40 DUP3 ADD MSTORE PUSH32 0x63616E6E6F7420776974686472617720746F6B656E207768696C65207374616B PUSH1 0x60 DUP3 ADD MSTORE PUSH32 0x6564000000000000000000000000000000000000000000000000000000000000 PUSH1 0x80 DUP3 ADD MSTORE PUSH1 0xA0 ADD SWAP1 JUMP JUMPDEST PUSH1 0x20 DUP1 DUP3 MSTORE PUSH1 0x31 SWAP1 DUP3 ADD MSTORE PUSH32 0x556E697377617056335374616B65723A3A7374616B65546F6B656E3A20746F6B PUSH1 0x40 DUP3 ADD MSTORE PUSH32 0x656E20616C7265616479207374616B6564000000000000000000000000000000 PUSH1 0x60 DUP3 ADD MSTORE PUSH1 0x80 ADD SWAP1 JUMP JUMPDEST PUSH1 0x20 DUP1 DUP3 MSTORE PUSH1 0x2C SWAP1 DUP3 ADD MSTORE PUSH32 0x556E697377617056335374616B65723A3A7374616B65546F6B656E3A20696E63 PUSH1 0x40 DUP3 ADD MSTORE PUSH32 0x656E7469766520656E6465640000000000000000000000000000000000000000 PUSH1 0x60 DUP3 ADD MSTORE PUSH1 0x80 ADD SWAP1 JUMP JUMPDEST PUSH1 0x20 DUP1 DUP3 MSTORE PUSH1 0x3C SWAP1 DUP3 ADD MSTORE PUSH32 0x556E697377617056335374616B65723A3A7472616E736665724465706F736974 PUSH1 0x40 DUP3 ADD MSTORE PUSH32 0x3A20696E76616C6964207472616E7366657220726563697069656E7400000000 PUSH1 0x60 DUP3 ADD MSTORE PUSH1 0x80 ADD SWAP1 JUMP JUMPDEST PUSH1 0x20 DUP1 DUP3 MSTORE PUSH1 0x49 SWAP1 DUP3 ADD MSTORE PUSH32 0x556E697377617056335374616B65723A3A637265617465496E63656E74697665 PUSH1 0x40 DUP3 ADD MSTORE PUSH32 0x3A2073746172742074696D65206D757374206265206E6F77206F7220696E2074 PUSH1 0x60 DUP3 ADD MSTORE PUSH32 0x6865206675747572650000000000000000000000000000000000000000000000 PUSH1 0x80 DUP3 ADD MSTORE PUSH1 0xA0 ADD SWAP1 JUMP JUMPDEST PUSH1 0x20 DUP1 DUP3 MSTORE PUSH1 0x40 SWAP1 DUP3 ADD DUP2 SWAP1 MSTORE PUSH32 0x556E697377617056335374616B65723A3A7374616B65546F6B656E3A2063616E SWAP1 DUP3 ADD MSTORE PUSH32 0x6E6F74207374616B6520746F6B656E20776974682030206C6971756964697479 PUSH1 0x60 DUP3 ADD MSTORE PUSH1 0x80 ADD SWAP1 JUMP JUMPDEST PUSH1 0x20 DUP1 DUP3 MSTORE PUSH1 0x33 SWAP1 DUP3 ADD MSTORE PUSH32 0x556E697377617056335374616B65723A3A7374616B65546F6B656E3A206E6F6E PUSH1 0x40 DUP3 ADD MSTORE PUSH32 0x2D6578697374656E7420696E63656E7469766500000000000000000000000000 PUSH1 0x60 DUP3 ADD MSTORE PUSH1 0x80 ADD SWAP1 JUMP JUMPDEST PUSH1 0x20 DUP1 DUP3 MSTORE PUSH1 0x56 SWAP1 DUP3 ADD MSTORE PUSH32 0x556E697377617056335374616B65723A3A756E7374616B65546F6B656E3A206F PUSH1 0x40 DUP3 ADD MSTORE PUSH32 0x6E6C79206F776E65722063616E20776974686472617720746F6B656E20626566 PUSH1 0x60 DUP3 ADD MSTORE PUSH32 0x6F726520696E63656E7469766520656E642074696D6500000000000000000000 PUSH1 0x80 DUP3 ADD MSTORE PUSH1 0xA0 ADD SWAP1 JUMP JUMPDEST PUSH1 0x20 DUP1 DUP3 MSTORE PUSH1 0x32 SWAP1 DUP3 ADD MSTORE PUSH32 0x556E697377617056335374616B65723A3A7374616B65546F6B656E3A20696E63 PUSH1 0x40 DUP3 ADD MSTORE PUSH32 0x656E74697665206E6F7420737461727465640000000000000000000000000000 PUSH1 0x60 DUP3 ADD MSTORE PUSH1 0x80 ADD SWAP1 JUMP JUMPDEST PUSH1 0x20 DUP1 DUP3 MSTORE PUSH1 0x41 SWAP1 DUP3 ADD MSTORE PUSH32 0x556E697377617056335374616B65723A3A7374616B65546F6B656E3A20746F6B PUSH1 0x40 DUP3 ADD MSTORE PUSH32 0x656E20706F6F6C206973206E6F742074686520696E63656E7469766520706F6F PUSH1 0x60 DUP3 ADD MSTORE PUSH32 0x6C00000000000000000000000000000000000000000000000000000000000000 PUSH1 0x80 DUP3 ADD MSTORE PUSH1 0xA0 ADD SWAP1 JUMP JUMPDEST PUSH1 0x20 DUP1 DUP3 MSTORE PUSH1 0x3D SWAP1 DUP3 ADD MSTORE PUSH32 0x556E697377617056335374616B65723A3A7769746864726177546F6B656E3A20 PUSH1 0x40 DUP3 ADD MSTORE PUSH32 0x6F6E6C79206F776E65722063616E20776974686472617720746F6B656E000000 PUSH1 0x60 DUP3 ADD MSTORE PUSH1 0x80 ADD SWAP1 JUMP JUMPDEST PUSH1 0x20 DUP1 DUP3 MSTORE PUSH1 0x4D SWAP1 DUP3 ADD MSTORE PUSH32 0x556E697377617056335374616B65723A3A656E64496E63656E746976653A2063 PUSH1 0x40 DUP3 ADD MSTORE PUSH32 0x616E6E6F7420656E6420696E63656E74697665207768696C65206465706F7369 PUSH1 0x60 DUP3 ADD MSTORE PUSH32 0x747320617265207374616B656400000000000000000000000000000000000000 PUSH1 0x80 DUP3 ADD MSTORE PUSH1 0xA0 ADD SWAP1 JUMP JUMPDEST PUSH1 0x20 DUP1 DUP3 MSTORE PUSH1 0x37 SWAP1 DUP3 ADD MSTORE PUSH32 0x556E697377617056335374616B65723A3A7374616B65546F6B656E3A206F6E6C PUSH1 0x40 DUP3 ADD MSTORE PUSH32 0x79206F776E65722063616E207374616B6520746F6B656E000000000000000000 PUSH1 0x60 DUP3 ADD MSTORE PUSH1 0x80 ADD SWAP1 JUMP JUMPDEST PUSH1 0x20 DUP1 DUP3 MSTORE PUSH1 0x39 SWAP1 DUP3 ADD MSTORE PUSH32 0x556E697377617056335374616B65723A3A637265617465496E63656E74697665 PUSH1 0x40 DUP3 ADD MSTORE PUSH32 0x3A20726577617264206D75737420626520706F73697469766500000000000000 PUSH1 0x60 DUP3 ADD MSTORE PUSH1 0x80 ADD SWAP1 JUMP JUMPDEST PUSH1 0x20 DUP1 DUP3 MSTORE PUSH1 0x40 SWAP1 DUP3 ADD DUP2 SWAP1 MSTORE PUSH32 0x556E697377617056335374616B65723A3A637265617465496E63656E74697665 SWAP1 DUP3 ADD MSTORE PUSH32 0x3A2073746172742074696D6520746F6F2066617220696E746F20667574757265 PUSH1 0x60 DUP3 ADD MSTORE PUSH1 0x80 ADD SWAP1 JUMP JUMPDEST PUSH1 0x20 DUP1 DUP3 MSTORE PUSH1 0x40 SWAP1 DUP3 ADD DUP2 SWAP1 MSTORE PUSH32 0x556E697377617056335374616B65723A3A637265617465496E63656E74697665 SWAP1 DUP3 ADD MSTORE PUSH32 0x3A20696E63656E74697665206475726174696F6E20697320746F6F206C6F6E67 PUSH1 0x60 DUP3 ADD MSTORE PUSH1 0x80 ADD SWAP1 JUMP JUMPDEST PUSH1 0x20 DUP1 DUP3 MSTORE PUSH1 0x44 SWAP1 DUP3 ADD MSTORE PUSH32 0x556E697377617056335374616B65723A3A637265617465496E63656E74697665 PUSH1 0x40 DUP3 ADD MSTORE PUSH32 0x3A2073746172742074696D65206D757374206265206265666F726520656E6420 PUSH1 0x60 DUP3 ADD MSTORE PUSH32 0x74696D6500000000000000000000000000000000000000000000000000000000 PUSH1 0x80 DUP3 ADD MSTORE PUSH1 0xA0 ADD SWAP1 JUMP JUMPDEST PUSH1 0x20 DUP1 DUP3 MSTORE PUSH1 0x32 SWAP1 DUP3 ADD MSTORE PUSH32 0x556E697377617056335374616B65723A3A6F6E45524337323152656365697665 PUSH1 0x40 DUP3 ADD MSTORE PUSH32 0x643A206E6F74206120756E697633206E66740000000000000000000000000000 PUSH1 0x60 DUP3 ADD MSTORE PUSH1 0x80 ADD SWAP1 JUMP JUMPDEST PUSH1 0x20 DUP1 DUP3 MSTORE PUSH1 0x39 SWAP1 DUP3 ADD MSTORE PUSH32 0x556E697377617056335374616B65723A3A7769746864726177546F6B656E3A20 PUSH1 0x40 DUP3 ADD MSTORE PUSH32 0x63616E6E6F7420776974686472617720746F207374616B657200000000000000 PUSH1 0x60 DUP3 ADD MSTORE PUSH1 0x80 ADD SWAP1 JUMP JUMPDEST DUP2 MLOAD PUSH20 0xFFFFFFFFFFFFFFFFFFFFFFFFFFFFFFFFFFFFFFFF SWAP1 DUP2 AND DUP3 MSTORE PUSH1 0x20 DUP1 DUP5 ADD MLOAD DUP3 AND SWAP1 DUP4 ADD MSTORE PUSH1 0x40 DUP1 DUP5 ADD MLOAD SWAP1 DUP4 ADD MSTORE PUSH1 0x60 DUP1 DUP5 ADD MLOAD SWAP1 DUP4 ADD MSTORE PUSH1 0x80 SWAP3 DUP4 ADD MLOAD AND SWAP2 DUP2 ADD SWAP2 SWAP1 SWAP2 MSTORE PUSH1 0xA0 ADD SWAP1 JUMP JUMPDEST PUSH16 0xFFFFFFFFFFFFFFFFFFFFFFFFFFFFFFFF SWAP2 SWAP1 SWAP2 AND DUP2 MSTORE PUSH1 0x20 ADD SWAP1 JUMP JUMPDEST PUSH20 0xFFFFFFFFFFFFFFFFFFFFFFFFFFFFFFFFFFFFFFFF SWAP3 SWAP1 SWAP3 AND DUP3 MSTORE PUSH16 0xFFFFFFFFFFFFFFFFFFFFFFFFFFFFFFFF AND PUSH1 0x20 DUP3 ADD MSTORE PUSH1 0x40 ADD SWAP1 JUMP JUMPDEST SWAP1 DUP2 MSTORE PUSH1 0x20 ADD SWAP1 JUMP JUMPDEST SWAP2 DUP3 MSTORE PUSH20 0xFFFFFFFFFFFFFFFFFFFFFFFFFFFFFFFFFFFFFFFF AND PUSH1 0x20 DUP3 ADD MSTORE PUSH1 0x40 ADD SWAP1 JUMP JUMPDEST SWAP3 DUP4 MSTORE PUSH20 0xFFFFFFFFFFFFFFFFFFFFFFFFFFFFFFFFFFFFFFFF SWAP2 SWAP1 SWAP2 AND PUSH1 0x20 DUP4 ADD MSTORE PUSH12 0xFFFFFFFFFFFFFFFFFFFFFFFF AND PUSH1 0x40 DUP3 ADD MSTORE PUSH1 0x60 ADD SWAP1 JUMP JUMPDEST SWAP4 DUP5 MSTORE PUSH1 0x20 DUP5 ADD SWAP3 SWAP1 SWAP3 MSTORE PUSH20 0xFFFFFFFFFFFFFFFFFFFFFFFFFFFFFFFFFFFFFFFF AND PUSH1 0x40 DUP4 ADD MSTORE PUSH1 0x60 DUP3 ADD MSTORE PUSH1 0x80 ADD SWAP1 JUMP JUMPDEST PUSH1 0x0 DUP1 DUP4 CALLDATALOAD PUSH32 0xFFFFFFFFFFFFFFFFFFFFFFFFFFFFFFFFFFFFFFFFFFFFFFFFFFFFFFFFFFFFFFE1 DUP5 CALLDATASIZE SUB ADD DUP2 SLT PUSH2 0x3A95 JUMPI DUP3 DUP4 REVERT JUMPDEST DUP4 ADD DUP1 CALLDATALOAD SWAP2 POP PUSH8 0xFFFFFFFFFFFFFFFF DUP3 GT ISZERO PUSH2 0x3AAF JUMPI DUP3 DUP4 REVERT JUMPDEST PUSH1 0x20 ADD SWAP2 POP CALLDATASIZE DUP2 SWAP1 SUB DUP3 SGT ISZERO PUSH2 0x3AC4 JUMPI PUSH1 0x0 DUP1 REVERT JUMPDEST SWAP3 POP SWAP3 SWAP1 POP JUMP JUMPDEST PUSH1 0x40 MLOAD DUP2 DUP2 ADD PUSH8 0xFFFFFFFFFFFFFFFF DUP2 GT DUP3 DUP3 LT OR ISZERO PUSH2 0x3AE7 JUMPI INVALID JUMPDEST PUSH1 0x40 MSTORE SWAP2 SWAP1 POP JUMP JUMPDEST PUSH1 0x0 PUSH8 0xFFFFFFFFFFFFFFFF DUP3 GT ISZERO PUSH2 0x3B03 JUMPI INVALID JUMPDEST POP PUSH1 0x1F ADD PUSH32 0xFFFFFFFFFFFFFFFFFFFFFFFFFFFFFFFFFFFFFFFFFFFFFFFFFFFFFFFFFFFFFFE0 AND PUSH1 0x20 ADD SWAP1 JUMP JUMPDEST PUSH1 0x0 JUMPDEST DUP4 DUP2 LT ISZERO PUSH2 0x3B4A JUMPI DUP2 DUP2 ADD MLOAD DUP4 DUP3 ADD MSTORE PUSH1 0x20 ADD PUSH2 0x3B32 JUMP JUMPDEST DUP4 DUP2 GT ISZERO PUSH2 0x2006 JUMPI POP POP PUSH1 0x0 SWAP2 ADD MSTORE JUMP JUMPDEST PUSH20 0xFFFFFFFFFFFFFFFFFFFFFFFFFFFFFFFFFFFFFFFF DUP2 AND DUP2 EQ PUSH2 0x3B7D JUMPI PUSH1 0x0 DUP1 REVERT JUMPDEST POP JUMP INVALID SLOAD PUSH19 0x616E7366657248656C706572457874656E6465 PUSH5 0x3A3A736166 PUSH6 0x5472616E7366 PUSH6 0x723A2063616C PUSH13 0x20746F206E6F6E2D636F6E7472 PUSH2 0x6374 SLOAD PUSH19 0x616E7366657248656C706572457874656E6465 PUSH5 0x3A3A736166 PUSH6 0x5472616E7366 PUSH6 0x7246726F6D3A KECCAK256 PUSH4 0x616C6C20 PUSH21 0x6F206E6F6E2D636F6E7472616374A164736F6C6343 STOP SMOD MOD STOP EXP "},"methodIdentifiers":{"claimReward(address,address,uint256)":"2f2d783d","createIncentive((address,address,uint256,uint256,address),uint256)":"5cc5e3d9","deposits(uint256)":"b02c43d0","endIncentive((address,address,uint256,uint256,address))":"b5ada6e4","factory()":"c45a0155","getRewardInfo((address,address,uint256,uint256,address),uint256)":"d953186e","incentives(bytes32)":"60777795","maxIncentiveDuration()":"3dc0714b","maxIncentiveStartLeadTime()":"01b75440","multicall(bytes[])":"ac9650d8","nonfungiblePositionManager()":"b44a2722","onERC721Received(address,address,uint256,bytes)":"150b7a02","rewards(address,address)":"e70b9e27","stakeToken((address,address,uint256,uint256,address),uint256)":"f2d2909b","stakes(uint256,bytes32)":"c36c1ea5","transferDeposit(uint256,address)":"26bfee04","unstakeToken((address,address,uint256,uint256,address),uint256)":"f549ab42","withdrawToken(uint256,address,bytes)":"3c423f0b"}}}}}