{"contracts/test/TestRewardMath.sol":{"TestRewardMath":{"abi":[{"inputs":[{"internalType":"uint256","name":"totalRewardUnclaimed","type":"uint256"},{"internalType":"uint160","name":"totalSecondsClaimedX128","type":"uint160"},{"internalType":"uint256","name":"startTime","type":"uint256"},{"internalType":"uint256","name":"endTime","type":"uint256"},{"internalType":"uint128","name":"liquidity","type":"uint128"},{"internalType":"uint160","name":"secondsPerLiquidityInsideInitialX128","type":"uint160"},{"internalType":"uint160","name":"secondsPerLiquidityInsideX128","type":"uint160"},{"internalType":"uint256","name":"currentTime","type":"uint256"}],"name":"computeRewardAmount","outputs":[{"internalType":"uint256","name":"reward","type":"uint256"},{"internalType":"uint160","name":"secondsInsideX128","type":"uint160"}],"stateMutability":"pure","type":"function"}],"evm":{"bytecode":{"linkReferences":{},"object":"608060405234801561001057600080fd5b506102d0806100206000396000f3fe608060405234801561001057600080fd5b506004361061002b5760003560e01c8063f20b9d1a14610030575b600080fd5b61004361003e36600461020f565b61005a565b60405161005192919061029f565b60405180910390f35b60008061006d8a8a8a8a8a8a8a8a61007e565b909b909a5098505050505050505050565b6000808783101561008b57fe5b508383036fffffffffffffffffffffffffffffffff861602600073ffffffffffffffffffffffffffffffffffffffff8a1660808a6100c98b88610100565b03901b0390506100f08b8373ffffffffffffffffffffffffffffffffffffffff1683610119565b9250509850989650505050505050565b6000818310156101105781610112565b825b9392505050565b600080807fffffffffffffffffffffffffffffffffffffffffffffffffffffffffffffffff8587098686029250828110908390030390508061016d576000841161016257600080fd5b508290049050610112565b80841161017957600080fd5b6000848688096000868103871696879004966002600389028118808a02820302808a02820302808a02820302808a02820302808a02820302808a02909103029181900381900460010186841190950394909402919094039290920491909117919091029150509392505050565b803573ffffffffffffffffffffffffffffffffffffffff8116811461020a57600080fd5b919050565b600080600080600080600080610100898b03121561022b578384fd5b8835975061023b60208a016101e6565b9650604089013595506060890135945060808901356fffffffffffffffffffffffffffffffff8116811461026d578485fd5b935061027b60a08a016101e6565b925061028960c08a016101e6565b915060e089013590509295985092959890939650565b91825273ffffffffffffffffffffffffffffffffffffffff1660208201526040019056fea164736f6c6343000706000a","opcodes":"PUSH1 0x80 PUSH1 0x40 MSTORE CALLVALUE DUP1 ISZERO PUSH2 0x10 JUMPI PUSH1 0x0 DUP1 REVERT JUMPDEST POP PUSH2 0x2D0 DUP1 PUSH2 0x20 PUSH1 0x0 CODECOPY PUSH1 0x0 RETURN INVALID PUSH1 0x80 PUSH1 0x40 MSTORE CALLVALUE DUP1 ISZERO PUSH2 0x10 JUMPI PUSH1 0x0 DUP1 REVERT JUMPDEST POP PUSH1 0x4 CALLDATASIZE LT PUSH2 0x2B JUMPI PUSH1 0x0 CALLDATALOAD PUSH1 0xE0 SHR DUP1 PUSH4 0xF20B9D1A EQ PUSH2 0x30 JUMPI JUMPDEST PUSH1 0x0 DUP1 REVERT JUMPDEST PUSH2 0x43 PUSH2 0x3E CALLDATASIZE PUSH1 0x4 PUSH2 0x20F JUMP JUMPDEST PUSH2 0x5A JUMP JUMPDEST PUSH1 0x40 MLOAD PUSH2 0x51 SWAP3 SWAP2 SWAP1 PUSH2 0x29F JUMP JUMPDEST PUSH1 0x40 MLOAD DUP1 SWAP2 SUB SWAP1 RETURN JUMPDEST PUSH1 0x0 DUP1 PUSH2 0x6D DUP11 DUP11 DUP11 DUP11 DUP11 DUP11 DUP11 DUP11 PUSH2 0x7E JUMP JUMPDEST SWAP1 SWAP12 SWAP1 SWAP11 POP SWAP9 POP POP POP POP POP POP POP POP POP JUMP JUMPDEST PUSH1 0x0 DUP1 DUP8 DUP4 LT ISZERO PUSH2 0x8B JUMPI INVALID JUMPDEST POP DUP4 DUP4 SUB PUSH16 0xFFFFFFFFFFFFFFFFFFFFFFFFFFFFFFFF DUP7 AND MUL PUSH1 0x0 PUSH20 0xFFFFFFFFFFFFFFFFFFFFFFFFFFFFFFFFFFFFFFFF DUP11 AND PUSH1 0x80 DUP11 PUSH2 0xC9 DUP12 DUP9 PUSH2 0x100 JUMP JUMPDEST SUB SWAP1 SHL SUB SWAP1 POP PUSH2 0xF0 DUP12 DUP4 PUSH20 0xFFFFFFFFFFFFFFFFFFFFFFFFFFFFFFFFFFFFFFFF AND DUP4 PUSH2 0x119 JUMP JUMPDEST SWAP3 POP POP SWAP9 POP SWAP9 SWAP7 POP POP POP POP POP POP POP JUMP JUMPDEST PUSH1 0x0 DUP2 DUP4 LT ISZERO PUSH2 0x110 JUMPI DUP2 PUSH2 0x112 JUMP JUMPDEST DUP3 JUMPDEST SWAP4 SWAP3 POP POP POP JUMP JUMPDEST PUSH1 0x0 DUP1 DUP1 PUSH32 0xFFFFFFFFFFFFFFFFFFFFFFFFFFFFFFFFFFFFFFFFFFFFFFFFFFFFFFFFFFFFFFFF DUP6 DUP8 MULMOD DUP7 DUP7 MUL SWAP3 POP DUP3 DUP2 LT SWAP1 DUP4 SWAP1 SUB SUB SWAP1 POP DUP1 PUSH2 0x16D JUMPI PUSH1 0x0 DUP5 GT PUSH2 0x162 JUMPI PUSH1 0x0 DUP1 REVERT JUMPDEST POP DUP3 SWAP1 DIV SWAP1 POP PUSH2 0x112 JUMP JUMPDEST DUP1 DUP5 GT PUSH2 0x179 JUMPI PUSH1 0x0 DUP1 REVERT JUMPDEST PUSH1 0x0 DUP5 DUP7 DUP9 MULMOD PUSH1 0x0 DUP7 DUP2 SUB DUP8 AND SWAP7 DUP8 SWAP1 DIV SWAP7 PUSH1 0x2 PUSH1 0x3 DUP10 MUL DUP2 XOR DUP1 DUP11 MUL DUP3 SUB MUL DUP1 DUP11 MUL DUP3 SUB MUL DUP1 DUP11 MUL DUP3 SUB MUL DUP1 DUP11 MUL DUP3 SUB MUL DUP1 DUP11 MUL DUP3 SUB MUL DUP1 DUP11 MUL SWAP1 SWAP2 SUB MUL SWAP2 DUP2 SWAP1 SUB DUP2 SWAP1 DIV PUSH1 0x1 ADD DUP7 DUP5 GT SWAP1 SWAP6 SUB SWAP5 SWAP1 SWAP5 MUL SWAP2 SWAP1 SWAP5 SUB SWAP3 SWAP1 SWAP3 DIV SWAP2 SWAP1 SWAP2 OR SWAP2 SWAP1 SWAP2 MUL SWAP2 POP POP SWAP4 SWAP3 POP POP POP JUMP JUMPDEST DUP1 CALLDATALOAD PUSH20 0xFFFFFFFFFFFFFFFFFFFFFFFFFFFFFFFFFFFFFFFF DUP2 AND DUP2 EQ PUSH2 0x20A JUMPI PUSH1 0x0 DUP1 REVERT JUMPDEST SWAP2 SWAP1 POP JUMP JUMPDEST PUSH1 0x0 DUP1 PUSH1 0x0 DUP1 PUSH1 0x0 DUP1 PUSH1 0x0 DUP1 PUSH2 0x100 DUP10 DUP12 SUB SLT ISZERO PUSH2 0x22B JUMPI DUP4 DUP5 REVERT JUMPDEST DUP9 CALLDATALOAD SWAP8 POP PUSH2 0x23B PUSH1 0x20 DUP11 ADD PUSH2 0x1E6 JUMP JUMPDEST SWAP7 POP PUSH1 0x40 DUP10 ADD CALLDATALOAD SWAP6 POP PUSH1 0x60 DUP10 ADD CALLDATALOAD SWAP5 POP PUSH1 0x80 DUP10 ADD CALLDATALOAD PUSH16 0xFFFFFFFFFFFFFFFFFFFFFFFFFFFFFFFF DUP2 AND DUP2 EQ PUSH2 0x26D JUMPI DUP5 DUP6 REVERT JUMPDEST SWAP4 POP PUSH2 0x27B PUSH1 0xA0 DUP11 ADD PUSH2 0x1E6 JUMP JUMPDEST SWAP3 POP PUSH2 0x289 PUSH1 0xC0 DUP11 ADD PUSH2 0x1E6 JUMP JUMPDEST SWAP2 POP PUSH1 0xE0 DUP10 ADD CALLDATALOAD SWAP1 POP SWAP3 SWAP6 SWAP9 POP SWAP3 SWAP6 SWAP9 SWAP1 SWAP4 SWAP7 POP JUMP JUMPDEST SWAP2 DUP3 MSTORE PUSH20 0xFFFFFFFFFFFFFFFFFFFFFFFFFFFFFFFFFFFFFFFF AND PUSH1 0x20 DUP3 ADD MSTORE PUSH1 0x40 ADD SWAP1 JUMP INVALID LOG1 PUSH5 0x736F6C6343 STOP SMOD MOD STOP EXP "},"methodIdentifiers":{"computeRewardAmount(uint256,uint160,uint256,uint256,uint128,uint160,uint160,uint256)":"f20b9d1a"}}}}}