{
  "abi": [
    {
      "inputs": [
        {
          "components": [
            {
              "internalType": "contract IERC20Minimal",
              "name": "rewardToken",
              "type": "address"
            },
            {
              "internalType": "contract IUniswapV3Pool",
              "name": "pool",
              "type": "address"
            },
            {
              "internalType": "uint256",
              "name": "startTime",
              "type": "uint256"
            },
            {
              "internalType": "uint256",
              "name": "endTime",
              "type": "uint256"
            },
            {
              "internalType": "address",
              "name": "refundee",
              "type": "address"
            }
          ],
          "internalType": "struct IUniswapV3Staker.IncentiveKey",
          "name": "key",
          "type": "tuple"
        }
      ],
      "name": "compute",
      "outputs": [
        {
          "internalType": "bytes32",
          "name": "",
          "type": "bytes32"
        }
      ],
      "stateMutability": "pure",
      "type": "function"
    }
  ],
  "bytecode": {
    "object": "0x608060405234801561001057600080fd5b506101b5806100206000396000f3fe608060405234801561001057600080fd5b506004361061002b5760003560e01c80636ab7d88014610030575b600080fd5b61004361003e36600461009a565b610059565b604051610050919061011b565b60405180910390f35b60006100648261006a565b92915050565b60008160405160200161007d9190610124565b604051602081830303815290604052805190602001209050919050565b600060a082840312156100ab578081fd5b60405160a0810181811067ffffffffffffffff821117156100c857fe5b60405282356100d681610167565b815260208301356100e681610167565b806020830152506040830135604082015260608301356060820152608083013561010f81610167565b60808201529392505050565b90815260200190565b81516001600160a01b0390811682526020808401518216908301526040808401519083015260608084015190830152608092830151169181019190915260a00190565b6001600160a01b038116811461017c57600080fd5b5056fea2646970667358221220eb91da51c55f1153e670937e7af604ce31c5ee5691d54b5dc634da8c201b63c964736f6c63430007060033",
    "linkReferences": {}
  },
  "methodIdentifiers": {
    "compute((address,address,uint256,uint256,address))": "6ab7d880"
  },
  "id": 7
}